{
  "address": "0xe7f1725E7734CE288F8367e1Bb143E90bb3F0512",
  "abi": [
    {
      "inputs": [],
      "stateMutability": "nonpayable",
      "type": "constructor"
    },
    {
      "anonymous": false,
      "inputs": [
        {
          "indexed": true,
          "internalType": "address",
          "name": "owner",
          "type": "address"
        },
        {
          "indexed": true,
          "internalType": "address",
          "name": "approved",
          "type": "address"
        },
        {
          "indexed": true,
          "internalType": "uint256",
          "name": "tokenId",
          "type": "uint256"
        }
      ],
      "name": "Approval",
      "type": "event"
    },
    {
      "anonymous": false,
      "inputs": [
        {
          "indexed": true,
          "internalType": "address",
          "name": "owner",
          "type": "address"
        },
        {
          "indexed": true,
          "internalType": "address",
          "name": "operator",
          "type": "address"
        },
        {
          "indexed": false,
          "internalType": "bool",
          "name": "approved",
          "type": "bool"
        }
      ],
      "name": "ApprovalForAll",
      "type": "event"
    },
    {
      "anonymous": false,
      "inputs": [
        {
          "indexed": true,
          "internalType": "address",
          "name": "from",
          "type": "address"
        },
        {
          "indexed": true,
          "internalType": "address",
          "name": "to",
          "type": "address"
        },
        {
          "indexed": true,
          "internalType": "uint256",
          "name": "tokenId",
          "type": "uint256"
        }
      ],
      "name": "Transfer",
      "type": "event"
    },
    {
      "inputs": [
        {
          "internalType": "address",
          "name": "to",
          "type": "address"
        },
        {
          "internalType": "uint256",
          "name": "tokenId",
          "type": "uint256"
        }
      ],
      "name": "approve",
      "outputs": [],
      "stateMutability": "nonpayable",
      "type": "function"
    },
    {
      "inputs": [
        {
          "internalType": "address",
          "name": "owner",
          "type": "address"
        }
      ],
      "name": "balanceOf",
      "outputs": [
        {
          "internalType": "uint256",
          "name": "",
          "type": "uint256"
        }
      ],
      "stateMutability": "view",
      "type": "function"
    },
    {
      "inputs": [
        {
          "internalType": "uint256",
          "name": "tokenId",
          "type": "uint256"
        }
      ],
      "name": "getApproved",
      "outputs": [
        {
          "internalType": "address",
          "name": "",
          "type": "address"
        }
      ],
      "stateMutability": "view",
      "type": "function"
    },
    {
      "inputs": [
        {
          "internalType": "address",
          "name": "owner",
          "type": "address"
        },
        {
          "internalType": "address",
          "name": "operator",
          "type": "address"
        }
      ],
      "name": "isApprovedForAll",
      "outputs": [
        {
          "internalType": "bool",
          "name": "",
          "type": "bool"
        }
      ],
      "stateMutability": "view",
      "type": "function"
    },
    {
      "inputs": [],
      "name": "makeARadNFT",
      "outputs": [],
      "stateMutability": "nonpayable",
      "type": "function"
    },
    {
      "inputs": [],
      "name": "name",
      "outputs": [
        {
          "internalType": "string",
          "name": "",
          "type": "string"
        }
      ],
      "stateMutability": "view",
      "type": "function"
    },
    {
      "inputs": [
        {
          "internalType": "uint256",
          "name": "tokenId",
          "type": "uint256"
        }
      ],
      "name": "ownerOf",
      "outputs": [
        {
          "internalType": "address",
          "name": "",
          "type": "address"
        }
      ],
      "stateMutability": "view",
      "type": "function"
    },
    {
      "inputs": [
        {
          "internalType": "uint256",
          "name": "tokenId",
          "type": "uint256"
        },
        {
          "internalType": "string[]",
          "name": "words",
          "type": "string[]"
        }
      ],
      "name": "pickRandomWord",
      "outputs": [
        {
          "internalType": "string",
          "name": "",
          "type": "string"
        }
      ],
      "stateMutability": "pure",
      "type": "function"
    },
    {
      "inputs": [
        {
          "internalType": "address",
          "name": "from",
          "type": "address"
        },
        {
          "internalType": "address",
          "name": "to",
          "type": "address"
        },
        {
          "internalType": "uint256",
          "name": "tokenId",
          "type": "uint256"
        }
      ],
      "name": "safeTransferFrom",
      "outputs": [],
      "stateMutability": "nonpayable",
      "type": "function"
    },
    {
      "inputs": [
        {
          "internalType": "address",
          "name": "from",
          "type": "address"
        },
        {
          "internalType": "address",
          "name": "to",
          "type": "address"
        },
        {
          "internalType": "uint256",
          "name": "tokenId",
          "type": "uint256"
        },
        {
          "internalType": "bytes",
          "name": "_data",
          "type": "bytes"
        }
      ],
      "name": "safeTransferFrom",
      "outputs": [],
      "stateMutability": "nonpayable",
      "type": "function"
    },
    {
      "inputs": [
        {
          "internalType": "address",
          "name": "operator",
          "type": "address"
        },
        {
          "internalType": "bool",
          "name": "approved",
          "type": "bool"
        }
      ],
      "name": "setApprovalForAll",
      "outputs": [],
      "stateMutability": "nonpayable",
      "type": "function"
    },
    {
      "inputs": [
        {
          "internalType": "bytes4",
          "name": "interfaceId",
          "type": "bytes4"
        }
      ],
      "name": "supportsInterface",
      "outputs": [
        {
          "internalType": "bool",
          "name": "",
          "type": "bool"
        }
      ],
      "stateMutability": "view",
      "type": "function"
    },
    {
      "inputs": [],
      "name": "symbol",
      "outputs": [
        {
          "internalType": "string",
          "name": "",
          "type": "string"
        }
      ],
      "stateMutability": "view",
      "type": "function"
    },
    {
      "inputs": [
        {
          "internalType": "uint256",
          "name": "tokenId",
          "type": "uint256"
        }
      ],
      "name": "tokenURI",
      "outputs": [
        {
          "internalType": "string",
          "name": "",
          "type": "string"
        }
      ],
      "stateMutability": "view",
      "type": "function"
    },
    {
      "inputs": [
        {
          "internalType": "address",
          "name": "from",
          "type": "address"
        },
        {
          "internalType": "address",
          "name": "to",
          "type": "address"
        },
        {
          "internalType": "uint256",
          "name": "tokenId",
          "type": "uint256"
        }
      ],
      "name": "transferFrom",
      "outputs": [],
      "stateMutability": "nonpayable",
      "type": "function"
    }
  ],
  "transactionHash": "0x3dd1aaca98158d4475803dac9e27bb6e0e09896918a5e730804553172a89e200",
  "args": [],
  "numDeployments": 2,
  "solcInputHash": "38ed7489b5730004e02f9cf82b8bbd86",
  "bytecode": "0x608060405260405180610160016040528061012f815260200162004bb361012f9139600890805190602001906200003892919062000e1c565b506040518061022001604052806040518060400160405280600381526020017f476f64000000000000000000000000000000000000000000000000000000000081525081526020016040518060400160405280600481526020017f46616b650000000000000000000000000000000000000000000000000000000081525081526020016040518060400160405280600481526020017f5265616c0000000000000000000000000000000000000000000000000000000081525081526020016040518060400160405280600581526020017f4167696c6500000000000000000000000000000000000000000000000000000081525081526020016040518060400160405280600481526020017f536869740000000000000000000000000000000000000000000000000000000081525081526020016040518060400160405280600581526020017f517569636b00000000000000000000000000000000000000000000000000000081525081526020016040518060400160405280600b81526020017f436f6d706574657469766500000000000000000000000000000000000000000081525081526020016040518060400160405280600781526020017f466f63757365640000000000000000000000000000000000000000000000000081525081526020016040518060400160405280600981526020017f436f6e666964656e74000000000000000000000000000000000000000000000081525081526020016040518060400160405280600681526020017f476966746564000000000000000000000000000000000000000000000000000081525081526020016040518060400160405280600481526020017f44756d620000000000000000000000000000000000000000000000000000000081525081526020016040518060400160405280600b81526020017f4f75747374616e64696e6700000000000000000000000000000000000000000081525081526020016040518060400160405280600981526020017f486f6e6f7261626c65000000000000000000000000000000000000000000000081525081526020016040518060400160405280600581526020017f4c6f73657200000000000000000000000000000000000000000000000000000081525081526020016040518060400160405280600881526020017f4368616d70696f6e00000000000000000000000000000000000000000000000081525081526020016040518060400160405280600981526020017f416461707461626c65000000000000000000000000000000000000000000000081525081526020016040518060400160405280600481526020017f536c6f770000000000000000000000000000000000000000000000000000000081525081525060099060116200044092919062000ead565b506040518061022001604052806040518060400160405280600781526020017f466572726172690000000000000000000000000000000000000000000000000081525081526020016040518060400160405280600881526020017f4d6572636564657300000000000000000000000000000000000000000000000081525081526020016040518060400160405280600781526020017f52656442756c6c0000000000000000000000000000000000000000000000000081525081526020016040518060400160405280600681526020017f416c70696e65000000000000000000000000000000000000000000000000000081525081526020016040518060400160405280600481526020017f486161730000000000000000000000000000000000000000000000000000000081525081526020016040518060400160405280600481526020017f416c66610000000000000000000000000000000000000000000000000000000081525081526020016040518060400160405280600a81526020017f416c70686154617572690000000000000000000000000000000000000000000081525081526020016040518060400160405280600781526020017f4d634c6172656e0000000000000000000000000000000000000000000000000081525081526020016040518060400160405280600b81526020017f4173746f6e4d617274696e00000000000000000000000000000000000000000081525081526020016040518060400160405280600881526020017f57696c6c69616d7300000000000000000000000000000000000000000000000081525081526020016040518060400160405280600581526020017f4c6f74757300000000000000000000000000000000000000000000000000000081525081526020016040518060400160405280600781526020017f52656e61756c740000000000000000000000000000000000000000000000000081525081526020016040518060400160405280600881526020017f4d6173657261746900000000000000000000000000000000000000000000000081525081526020016040518060400160405280600681526020017f546f796f7461000000000000000000000000000000000000000000000000000081525081526020016040518060400160405280600581526020017f486f6e646100000000000000000000000000000000000000000000000000000081525081526020016040518060400160405280600781526020017f506f72736368650000000000000000000000000000000000000000000000000081525081526020016040518060400160405280600481526020017f466f726400000000000000000000000000000000000000000000000000000000815250815250600a9060116200084892919062000ead565b506040518061022001604052806040518060400160405280600781526020017f4c65636c6572630000000000000000000000000000000000000000000000000081525081526020016040518060400160405280600581526020017f5361696e7a00000000000000000000000000000000000000000000000000000081525081526020016040518060400160405280600a81526020017f5665727374617070656e0000000000000000000000000000000000000000000081525081526020016040518060400160405280600781526020017f52757373656c6c0000000000000000000000000000000000000000000000000081525081526020016040518060400160405280600881526020017f48616d696c746f6e00000000000000000000000000000000000000000000000081525081526020016040518060400160405280600481526020017f4f636f6e0000000000000000000000000000000000000000000000000000000081525081526020016040518060400160405280600581526020017f506572657a00000000000000000000000000000000000000000000000000000081525081526020016040518060400160405280600981526020017f4d61676e757373656e000000000000000000000000000000000000000000000081525081526020016040518060400160405280600681526020017f426f74746173000000000000000000000000000000000000000000000000000081525081526020016040518060400160405280600681526020017f4e6f72726973000000000000000000000000000000000000000000000000000081525081526020016040518060400160405280600781526020017f5473756e6f64610000000000000000000000000000000000000000000000000081525081526020016040518060400160405280600581526020017f4761736c7900000000000000000000000000000000000000000000000000000081525081526020016040518060400160405280600681526020017f416c6f6e736f000000000000000000000000000000000000000000000000000081525081526020016040518060400160405280600481526020017f5a686f750000000000000000000000000000000000000000000000000000000081525081526020016040518060400160405280600a81526020017f536368756d61636865720000000000000000000000000000000000000000000081525081526020016040518060400160405280600981526020017f52696363696172646f000000000000000000000000000000000000000000000081525081526020016040518060400160405280600681526020017f56657474656c0000000000000000000000000000000000000000000000000000815250815250600b90601162000c5092919062000ead565b5034801562000c5e57600080fd5b506040518060400160405280600681526020017f5261644e465400000000000000000000000000000000000000000000000000008152506040518060400160405280600381526020017f5241440000000000000000000000000000000000000000000000000000000000815250816000908051906020019062000ce392919062000e1c565b50806001908051906020019062000cfc92919062000e1c565b50505062000d4a6040518060400160405280600b81526020017f546869732069732052616400000000000000000000000000000000000000000081525062000d5060201b62000fe61760201c565b620010ce565b62000df08160405160240162000d67919062000fe2565b6040516020818303038152906040527f41304fac000000000000000000000000000000000000000000000000000000007bffffffffffffffffffffffffffffffffffffffffffffffffffffffff19166020820180517bffffffffffffffffffffffffffffffffffffffffffffffffffffffff838183161783525050505062000df360201b60201c565b50565b60008151905060006a636f6e736f6c652e6c6f679050602083016000808483855afa5050505050565b82805462000e2a9062001058565b90600052602060002090601f01602090048101928262000e4e576000855562000e9a565b82601f1062000e6957805160ff191683800117855562000e9a565b8280016001018555821562000e9a579182015b8281111562000e9957825182559160200191906001019062000e7c565b5b50905062000ea9919062000f14565b5090565b82805482825590600052602060002090810192821562000f01579160200282015b8281111562000f0057825182908051906020019062000eef92919062000e1c565b509160200191906001019062000ece565b5b50905062000f10919062000f33565b5090565b5b8082111562000f2f57600081600090555060010162000f15565b5090565b5b8082111562000f57576000818162000f4d919062000f5b565b5060010162000f34565b5090565b50805462000f699062001058565b6000825580601f1062000f7d575062000f9e565b601f01602090049060005260206000209081019062000f9d919062000f14565b5b50565b600062000fae8262001006565b62000fba818562001011565b935062000fcc81856020860162001022565b62000fd781620010bd565b840191505092915050565b6000602082019050818103600083015262000ffe818462000fa1565b905092915050565b600081519050919050565b600082825260208201905092915050565b60005b838110156200104257808201518184015260208101905062001025565b8381111562001052576000848401525b50505050565b600060028204905060018216806200107157607f821691505b602082108114156200108857620010876200108e565b5b50919050565b7f4e487b7100000000000000000000000000000000000000000000000000000000600052602260045260246000fd5b6000601f19601f8301169050919050565b613ad580620010de6000396000f3fe608060405234801561001057600080fd5b50600436106100f55760003560e01c806370a0823111610097578063a22cb46511610066578063a22cb46514610284578063b88d4fde146102a0578063c87b56dd146102bc578063e985e9c5146102ec576100f5565b806370a08231146101fc57806375af75fe1461022c57806395d89b411461025c5780639da50ee21461027a576100f5565b8063095ea7b3116100d3578063095ea7b31461017857806323b872dd1461019457806342842e0e146101b05780636352211e146101cc576100f5565b806301ffc9a7146100fa57806306fdde031461012a578063081812fc14610148575b600080fd5b610114600480360381019061010f9190612501565b61031c565b6040516101219190612c67565b60405180910390f35b6101326103fe565b60405161013f9190612c82565b60405180910390f35b610162600480360381019061015d9190612553565b610490565b60405161016f9190612c00565b60405180910390f35b610192600480360381019061018d91906124c5565b610515565b005b6101ae60048036038101906101a991906123bf565b61062d565b005b6101ca60048036038101906101c591906123bf565b61068d565b005b6101e660048036038101906101e19190612553565b6106ad565b6040516101f39190612c00565b60405180910390f35b6102166004803603810190610211919061235a565b61075f565b6040516102239190612ee2565b60405180910390f35b6102466004803603810190610241919061257c565b610817565b6040516102539190612c82565b60405180910390f35b6102646108a6565b6040516102719190612c82565b60405180910390f35b610282610938565b005b61029e60048036038101906102999190612489565b610d88565b005b6102ba60048036038101906102b5919061240e565b610d9e565b005b6102d660048036038101906102d19190612553565b610e00565b6040516102e39190612c82565b60405180910390f35b61030660048036038101906103019190612383565b610f52565b6040516103139190612c67565b60405180910390f35b60007f80ac58cd000000000000000000000000000000000000000000000000000000007bffffffffffffffffffffffffffffffffffffffffffffffffffffffff1916827bffffffffffffffffffffffffffffffffffffffffffffffffffffffff191614806103e757507f5b5e139f000000000000000000000000000000000000000000000000000000007bffffffffffffffffffffffffffffffffffffffffffffffffffffffff1916827bffffffffffffffffffffffffffffffffffffffffffffffffffffffff1916145b806103f757506103f68261107f565b5b9050919050565b60606000805461040d906131d3565b80601f0160208091040260200160405190810160405280929190818152602001828054610439906131d3565b80156104865780601f1061045b57610100808354040283529160200191610486565b820191906000526020600020905b81548152906001019060200180831161046957829003601f168201915b5050505050905090565b600061049b826110e9565b6104da576040517f08c379a00000000000000000000000000000000000000000000000000000000081526004016104d190612e62565b60405180910390fd5b6004600083815260200190815260200160002060009054906101000a900473ffffffffffffffffffffffffffffffffffffffff169050919050565b6000610520826106ad565b90508073ffffffffffffffffffffffffffffffffffffffff168373ffffffffffffffffffffffffffffffffffffffff161415610591576040517f08c379a000000000000000000000000000000000000000000000000000000000815260040161058890612ea2565b60405180910390fd5b8073ffffffffffffffffffffffffffffffffffffffff166105b0611155565b73ffffffffffffffffffffffffffffffffffffffff1614806105df57506105de816105d9611155565b610f52565b5b61061e576040517f08c379a000000000000000000000000000000000000000000000000000000000815260040161061590612da2565b60405180910390fd5b610628838361115d565b505050565b61063e610638611155565b82611216565b61067d576040517f08c379a000000000000000000000000000000000000000000000000000000000815260040161067490612ec2565b60405180910390fd5b6106888383836112f4565b505050565b6106a883838360405180602001604052806000815250610d9e565b505050565b6000806002600084815260200190815260200160002060009054906101000a900473ffffffffffffffffffffffffffffffffffffffff169050600073ffffffffffffffffffffffffffffffffffffffff168173ffffffffffffffffffffffffffffffffffffffff161415610756576040517f08c379a000000000000000000000000000000000000000000000000000000000815260040161074d90612de2565b60405180910390fd5b80915050919050565b60008073ffffffffffffffffffffffffffffffffffffffff168273ffffffffffffffffffffffffffffffffffffffff1614156107d0576040517f08c379a00000000000000000000000000000000000000000000000000000000081526004016107c790612dc2565b60405180910390fd5b600360008373ffffffffffffffffffffffffffffffffffffffff1673ffffffffffffffffffffffffffffffffffffffff168152602001908152602001600020549050919050565b6060600061084b6108278561155b565b6040516020016108379190612bbc565b604051602081830303815290604052611708565b905082518161085a919061327f565b9050828181518110610895577f4e487b7100000000000000000000000000000000000000000000000000000000600052603260045260246000fd5b602002602001015191505092915050565b6060600180546108b5906131d3565b80601f01602080910402602001604051908101604052809291908181526020018280546108e1906131d3565b801561092e5780601f106109035761010080835404028352916020019161092e565b820191906000526020600020905b81548152906001019060200180831161091157829003601f168201915b5050505050905090565b6000610944600761173b565b90506000610a23826009805480602002602001604051908101604052809291908181526020016000905b82821015610a1a57838290600052602060002001805461098d906131d3565b80601f01602080910402602001604051908101604052809291908181526020018280546109b9906131d3565b8015610a065780601f106109db57610100808354040283529160200191610a06565b820191906000526020600020905b8154815290600101906020018083116109e957829003601f168201915b50505050508152602001906001019061096e565b50505050610817565b90506000610b0283600a805480602002602001604051908101604052809291908181526020016000905b82821015610af9578382906000526020600020018054610a6c906131d3565b80601f0160208091040260200160405190810160405280929190818152602001828054610a98906131d3565b8015610ae55780601f10610aba57610100808354040283529160200191610ae5565b820191906000526020600020905b815481529060010190602001808311610ac857829003601f168201915b505050505081526020019060010190610a4d565b50505050610817565b90506000610be184600b805480602002602001604051908101604052809291908181526020016000905b82821015610bd8578382906000526020600020018054610b4b906131d3565b80601f0160208091040260200160405190810160405280929190818152602001828054610b77906131d3565b8015610bc45780601f10610b9957610100808354040283529160200191610bc4565b820191906000526020600020905b815481529060010190602001808311610ba757829003601f168201915b505050505081526020019060010190610b2c565b50505050610817565b90506000838383604051602001610bfa93929190612ac5565b604051602081830303815290604052905060006008858585604051602001610c259493929190612af6565b6040516020818303038152906040529050610c746040518060400160405280601581526020017f0a2d2d2d2d2d2d2d2d2d2d2d2d2d2d2d2d2d2d2d2d0000000000000000000000815250610fe6565b610c7d81610fe6565b610cbb6040518060400160405280601581526020017f2d2d2d2d2d2d2d2d2d2d2d2d2d2d2d2d2d2d2d2d0a0000000000000000000000815250610fe6565b6000610cef83610cca84611749565b604051602001610cdb929190612b61565b604051602081830303815290604052611749565b9050600081604051602001610d049190612bde565b6040516020818303038152906040529050610d3d81604051602001610d299190612b3f565b604051602081830303815290604052610fe6565b610d473389611907565b610d518882611925565b610d5b6007611999565b610d7e604051806060016040528060258152602001613a3b6025913989336119af565b5050505050505050565b610d9a610d93611155565b8383611a4e565b5050565b610daf610da9611155565b83611216565b610dee576040517f08c379a0000000000000000000000000000000000000000000000000000000008152600401610de590612ec2565b60405180910390fd5b610dfa84848484611bbb565b50505050565b6060610e0b826110e9565b610e4a576040517f08c379a0000000000000000000000000000000000000000000000000000000008152600401610e4190612e42565b60405180910390fd5b6000600660008481526020019081526020016000208054610e6a906131d3565b80601f0160208091040260200160405190810160405280929190818152602001828054610e96906131d3565b8015610ee35780601f10610eb857610100808354040283529160200191610ee3565b820191906000526020600020905b815481529060010190602001808311610ec657829003601f168201915b505050505090506000610ef4611c17565b9050600081511415610f0a578192505050610f4d565b600082511115610f3f578082604051602001610f27929190612aa1565b60405160208183030381529060405292505050610f4d565b610f4884611c2e565b925050505b919050565b6000600560008473ffffffffffffffffffffffffffffffffffffffff1673ffffffffffffffffffffffffffffffffffffffff16815260200190815260200160002060008373ffffffffffffffffffffffffffffffffffffffff1673ffffffffffffffffffffffffffffffffffffffff16815260200190815260200160002060009054906101000a900460ff16905092915050565b61107c81604051602401610ffa9190612c82565b6040516020818303038152906040527f41304fac000000000000000000000000000000000000000000000000000000007bffffffffffffffffffffffffffffffffffffffffffffffffffffffff19166020820180517bffffffffffffffffffffffffffffffffffffffffffffffffffffffff8381831617835250505050611cd5565b50565b60007f01ffc9a7000000000000000000000000000000000000000000000000000000007bffffffffffffffffffffffffffffffffffffffffffffffffffffffff1916827bffffffffffffffffffffffffffffffffffffffffffffffffffffffff1916149050919050565b60008073ffffffffffffffffffffffffffffffffffffffff166002600084815260200190815260200160002060009054906101000a900473ffffffffffffffffffffffffffffffffffffffff1673ffffffffffffffffffffffffffffffffffffffff1614159050919050565b600033905090565b816004600083815260200190815260200160002060006101000a81548173ffffffffffffffffffffffffffffffffffffffff021916908373ffffffffffffffffffffffffffffffffffffffff160217905550808273ffffffffffffffffffffffffffffffffffffffff166111d0836106ad565b73ffffffffffffffffffffffffffffffffffffffff167f8c5be1e5ebec7d5bd14f71427d1e84f3dd0314c0f7b2291e5b200ac8c7c3b92560405160405180910390a45050565b6000611221826110e9565b611260576040517f08c379a000000000000000000000000000000000000000000000000000000000815260040161125790612d82565b60405180910390fd5b600061126b836106ad565b90508073ffffffffffffffffffffffffffffffffffffffff168473ffffffffffffffffffffffffffffffffffffffff1614806112da57508373ffffffffffffffffffffffffffffffffffffffff166112c284610490565b73ffffffffffffffffffffffffffffffffffffffff16145b806112eb57506112ea8185610f52565b5b91505092915050565b8273ffffffffffffffffffffffffffffffffffffffff16611314826106ad565b73ffffffffffffffffffffffffffffffffffffffff161461136a576040517f08c379a000000000000000000000000000000000000000000000000000000000815260040161136190612d02565b60405180910390fd5b600073ffffffffffffffffffffffffffffffffffffffff168273ffffffffffffffffffffffffffffffffffffffff1614156113da576040517f08c379a00000000000000000000000000000000000000000000000000000000081526004016113d190612d42565b60405180910390fd5b6113e5838383611cfe565b6113f060008261115d565b6001600360008573ffffffffffffffffffffffffffffffffffffffff1673ffffffffffffffffffffffffffffffffffffffff168152602001908152602001600020600082825461144091906130e9565b925050819055506001600360008473ffffffffffffffffffffffffffffffffffffffff1673ffffffffffffffffffffffffffffffffffffffff16815260200190815260200160002060008282546114979190613008565b92505081905550816002600083815260200190815260200160002060006101000a81548173ffffffffffffffffffffffffffffffffffffffff021916908373ffffffffffffffffffffffffffffffffffffffff160217905550808273ffffffffffffffffffffffffffffffffffffffff168473ffffffffffffffffffffffffffffffffffffffff167fddf252ad1be2c89b69c2b068fc378daa952ba7f163c4a11628f55a4df523b3ef60405160405180910390a4611556838383611d03565b505050565b606060008214156115a3576040518060400160405280600181526020017f30000000000000000000000000000000000000000000000000000000000000008152509050611703565b600082905060005b600082146115d55780806115be90613236565b915050600a826115ce919061305e565b91506115ab565b60008167ffffffffffffffff811115611617577f4e487b7100000000000000000000000000000000000000000000000000000000600052604160045260246000fd5b6040519080825280601f01601f1916602001820160405280156116495781602001600182028036833780820191505090505b5090505b600085146116fc5760018261166291906130e9565b9150600a85611671919061327f565b603061167d9190613008565b60f81b8183815181106116b9577f4e487b7100000000000000000000000000000000000000000000000000000000600052603260045260246000fd5b60200101907effffffffffffffffffffffffffffffffffffffffffffffffffffffffffffff1916908160001a905350600a856116f5919061305e565b945061164d565b8093505050505b919050565b60008160405160200161171b9190612a8a565b6040516020818303038152906040528051906020012060001c9050919050565b600081600001549050919050565b606060008251905060008114156117725760405180602001604052806000815250915050611902565b600060036002836117839190613008565b61178d919061305e565b6004611799919061308f565b905060006020826117aa9190613008565b67ffffffffffffffff8111156117e9577f4e487b7100000000000000000000000000000000000000000000000000000000600052604160045260246000fd5b6040519080825280601f01601f19166020018201604052801561181b5781602001600182028036833780820191505090505b5090506000604051806060016040528060408152602001613a60604091399050600181016020830160005b868110156118bf5760038101905062ffffff818a015116603f8160121c168401518060081b905060ff603f83600c1c1686015116810190508060081b905060ff603f8360061c1686015116810190508060081b905060ff603f831686015116810190508060e01b90508084526004840193505050611846565b5060038606600181146118d957600281146118e9576118f4565b613d3d60f01b60028303526118f4565b603d60f81b60018303525b508484525050819450505050505b919050565b611921828260405180602001604052806000815250611d08565b5050565b61192e826110e9565b61196d576040517f08c379a000000000000000000000000000000000000000000000000000000000815260040161196490612e02565b60405180910390fd5b806006600084815260200190815260200160002090805190602001906119949291906120f7565b505050565b6001816000016000828254019250508190555050565b611a498383836040516024016119c793929190612ca4565b6040516020818303038152906040527fe3849f79000000000000000000000000000000000000000000000000000000007bffffffffffffffffffffffffffffffffffffffffffffffffffffffff19166020820180517bffffffffffffffffffffffffffffffffffffffffffffffffffffffff8381831617835250505050611cd5565b505050565b8173ffffffffffffffffffffffffffffffffffffffff168373ffffffffffffffffffffffffffffffffffffffff161415611abd576040517f08c379a0000000000000000000000000000000000000000000000000000000008152600401611ab490612d62565b60405180910390fd5b80600560008573ffffffffffffffffffffffffffffffffffffffff1673ffffffffffffffffffffffffffffffffffffffff16815260200190815260200160002060008473ffffffffffffffffffffffffffffffffffffffff1673ffffffffffffffffffffffffffffffffffffffff16815260200190815260200160002060006101000a81548160ff0219169083151502179055508173ffffffffffffffffffffffffffffffffffffffff168373ffffffffffffffffffffffffffffffffffffffff167f17307eab39ab6107e8899845ad3d59bd9653f200f220920489ca2b5937696c3183604051611bae9190612c67565b60405180910390a3505050565b611bc68484846112f4565b611bd284848484611d63565b611c11576040517f08c379a0000000000000000000000000000000000000000000000000000000008152600401611c0890612ce2565b60405180910390fd5b50505050565b606060405180602001604052806000815250905090565b6060611c39826110e9565b611c78576040517f08c379a0000000000000000000000000000000000000000000000000000000008152600401611c6f90612e82565b60405180910390fd5b6000611c82611c17565b90506000815111611ca25760405180602001604052806000815250611ccd565b80611cac8461155b565b604051602001611cbd929190612aa1565b6040516020818303038152906040525b915050919050565b60008151905060006a636f6e736f6c652e6c6f679050602083016000808483855afa5050505050565b505050565b505050565b611d128383611efa565b611d1f6000848484611d63565b611d5e576040517f08c379a0000000000000000000000000000000000000000000000000000000008152600401611d5590612ce2565b60405180910390fd5b505050565b6000611d848473ffffffffffffffffffffffffffffffffffffffff166120d4565b15611eed578373ffffffffffffffffffffffffffffffffffffffff1663150b7a02611dad611155565b8786866040518563ffffffff1660e01b8152600401611dcf9493929190612c1b565b602060405180830381600087803b158015611de957600080fd5b505af1925050508015611e1a57506040513d601f19601f82011682018060405250810190611e17919061252a565b60015b611e9d573d8060008114611e4a576040519150601f19603f3d011682016040523d82523d6000602084013e611e4f565b606091505b50600081511415611e95576040517f08c379a0000000000000000000000000000000000000000000000000000000008152600401611e8c90612ce2565b60405180910390fd5b805181602001fd5b63150b7a0260e01b7bffffffffffffffffffffffffffffffffffffffffffffffffffffffff1916817bffffffffffffffffffffffffffffffffffffffffffffffffffffffff191614915050611ef2565b600190505b949350505050565b600073ffffffffffffffffffffffffffffffffffffffff168273ffffffffffffffffffffffffffffffffffffffff161415611f6a576040517f08c379a0000000000000000000000000000000000000000000000000000000008152600401611f6190612e22565b60405180910390fd5b611f73816110e9565b15611fb3576040517f08c379a0000000000000000000000000000000000000000000000000000000008152600401611faa90612d22565b60405180910390fd5b611fbf60008383611cfe565b6001600360008473ffffffffffffffffffffffffffffffffffffffff1673ffffffffffffffffffffffffffffffffffffffff168152602001908152602001600020600082825461200f9190613008565b92505081905550816002600083815260200190815260200160002060006101000a81548173ffffffffffffffffffffffffffffffffffffffff021916908373ffffffffffffffffffffffffffffffffffffffff160217905550808273ffffffffffffffffffffffffffffffffffffffff16600073ffffffffffffffffffffffffffffffffffffffff167fddf252ad1be2c89b69c2b068fc378daa952ba7f163c4a11628f55a4df523b3ef60405160405180910390a46120d060008383611d03565b5050565b6000808273ffffffffffffffffffffffffffffffffffffffff163b119050919050565b828054612103906131d3565b90600052602060002090601f016020900481019282612125576000855561216c565b82601f1061213e57805160ff191683800117855561216c565b8280016001018555821561216c579182015b8281111561216b578251825591602001919060010190612150565b5b509050612179919061217d565b5090565b5b8082111561219657600081600090555060010161217e565b5090565b60006121ad6121a884612f22565b612efd565b9050808382526020820190508260005b858110156121ed57813585016121d3888261231b565b8452602084019350602083019250506001810190506121bd565b5050509392505050565b600061220a61220584612f4e565b612efd565b90508281526020810184848401111561222257600080fd5b61222d848285613191565b509392505050565b600061224861224384612f7f565b612efd565b90508281526020810184848401111561226057600080fd5b61226b848285613191565b509392505050565b600081359050612282816139de565b92915050565b600082601f83011261229957600080fd5b81356122a984826020860161219a565b91505092915050565b6000813590506122c1816139f5565b92915050565b6000813590506122d681613a0c565b92915050565b6000815190506122eb81613a0c565b92915050565b600082601f83011261230257600080fd5b81356123128482602086016121f7565b91505092915050565b600082601f83011261232c57600080fd5b813561233c848260208601612235565b91505092915050565b60008135905061235481613a23565b92915050565b60006020828403121561236c57600080fd5b600061237a84828501612273565b91505092915050565b6000806040838503121561239657600080fd5b60006123a485828601612273565b92505060206123b585828601612273565b9150509250929050565b6000806000606084860312156123d457600080fd5b60006123e286828701612273565b93505060206123f386828701612273565b925050604061240486828701612345565b9150509250925092565b6000806000806080858703121561242457600080fd5b600061243287828801612273565b945050602061244387828801612273565b935050604061245487828801612345565b925050606085013567ffffffffffffffff81111561247157600080fd5b61247d878288016122f1565b91505092959194509250565b6000806040838503121561249c57600080fd5b60006124aa85828601612273565b92505060206124bb858286016122b2565b9150509250929050565b600080604083850312156124d857600080fd5b60006124e685828601612273565b92505060206124f785828601612345565b9150509250929050565b60006020828403121561251357600080fd5b6000612521848285016122c7565b91505092915050565b60006020828403121561253c57600080fd5b600061254a848285016122dc565b91505092915050565b60006020828403121561256557600080fd5b600061257384828501612345565b91505092915050565b6000806040838503121561258f57600080fd5b600061259d85828601612345565b925050602083013567ffffffffffffffff8111156125ba57600080fd5b6125c685828601612288565b9150509250929050565b6125d98161311d565b82525050565b6125e88161312f565b82525050565b60006125f982612fc5565b6126038185612fdb565b93506126138185602086016131a0565b61261c8161336c565b840191505092915050565b600061263282612fd0565b61263c8185612fec565b935061264c8185602086016131a0565b6126558161336c565b840191505092915050565b600061266b82612fd0565b6126758185612ffd565b93506126858185602086016131a0565b80840191505092915050565b6000815461269e816131d3565b6126a88186612ffd565b945060018216600081146126c357600181146126d457612707565b60ff19831686528186019350612707565b6126dd85612fb0565b60005b838110156126ff578154818901526001820191506020810190506126e0565b838801955050505b50505092915050565b600061271d602583612ffd565b91506127288261337d565b602582019050919050565b6000612740603283612fec565b915061274b826133cc565b604082019050919050565b6000612763600283612ffd565b915061276e8261341b565b600282019050919050565b6000612786602583612fec565b915061279182613444565b604082019050919050565b60006127a9601c83612fec565b91506127b482613493565b602082019050919050565b60006127cc602c83612ffd565b91506127d7826134bc565b602c82019050919050565b60006127ef602483612fec565b91506127fa8261350b565b604082019050919050565b6000612812601983612fec565b915061281d8261355a565b602082019050919050565b6000612835602c83612fec565b915061284082613583565b604082019050919050565b6000612858600d83612ffd565b9150612863826135d2565b600d82019050919050565b600061287b603883612fec565b9150612886826135fb565b604082019050919050565b600061289e602a83612fec565b91506128a98261364a565b604082019050919050565b60006128c1602983612fec565b91506128cc82613699565b604082019050919050565b60006128e4602e83612fec565b91506128ef826136e8565b604082019050919050565b6000612907602483612ffd565b915061291282613737565b602482019050919050565b600061292a600283612ffd565b915061293582613786565b600282019050919050565b600061294d602083612fec565b9150612958826137af565b602082019050919050565b6000612970603183612fec565b915061297b826137d8565b604082019050919050565b6000612993602c83612fec565b915061299e82613827565b604082019050919050565b60006129b6602f83612fec565b91506129c182613876565b604082019050919050565b60006129d9600a83612ffd565b91506129e4826138c5565b600a82019050919050565b60006129fc602183612fec565b9150612a07826138ee565b604082019050919050565b6000612a1f600a83612ffd565b9150612a2a8261393d565b600a82019050919050565b6000612a42601d83612ffd565b9150612a4d82613966565b601d82019050919050565b6000612a65603183612fec565b9150612a708261398f565b604082019050919050565b612a8481613187565b82525050565b6000612a968284612660565b915081905092915050565b6000612aad8285612660565b9150612ab98284612660565b91508190509392505050565b6000612ad18286612660565b9150612add8285612660565b9150612ae98284612660565b9150819050949350505050565b6000612b028287612691565b9150612b0e8286612660565b9150612b1a8285612660565b9150612b268284612660565b9150612b318261284b565b915081905095945050505050565b6000612b4a82612710565b9150612b568284612660565b915081905092915050565b6000612b6c826129cc565b9150612b788285612660565b9150612b8382612756565b9150612b8e826127bf565b9150612b99826128fa565b9150612ba58284612660565b9150612bb08261291d565b91508190509392505050565b6000612bc782612a12565b9150612bd38284612660565b915081905092915050565b6000612be982612a35565b9150612bf58284612660565b915081905092915050565b6000602082019050612c1560008301846125d0565b92915050565b6000608082019050612c3060008301876125d0565b612c3d60208301866125d0565b612c4a6040830185612a7b565b8181036060830152612c5c81846125ee565b905095945050505050565b6000602082019050612c7c60008301846125df565b92915050565b60006020820190508181036000830152612c9c8184612627565b905092915050565b60006060820190508181036000830152612cbe8186612627565b9050612ccd6020830185612a7b565b612cda60408301846125d0565b949350505050565b60006020820190508181036000830152612cfb81612733565b9050919050565b60006020820190508181036000830152612d1b81612779565b9050919050565b60006020820190508181036000830152612d3b8161279c565b9050919050565b60006020820190508181036000830152612d5b816127e2565b9050919050565b60006020820190508181036000830152612d7b81612805565b9050919050565b60006020820190508181036000830152612d9b81612828565b9050919050565b60006020820190508181036000830152612dbb8161286e565b9050919050565b60006020820190508181036000830152612ddb81612891565b9050919050565b60006020820190508181036000830152612dfb816128b4565b9050919050565b60006020820190508181036000830152612e1b816128d7565b9050919050565b60006020820190508181036000830152612e3b81612940565b9050919050565b60006020820190508181036000830152612e5b81612963565b9050919050565b60006020820190508181036000830152612e7b81612986565b9050919050565b60006020820190508181036000830152612e9b816129a9565b9050919050565b60006020820190508181036000830152612ebb816129ef565b9050919050565b60006020820190508181036000830152612edb81612a58565b9050919050565b6000602082019050612ef76000830184612a7b565b92915050565b6000612f07612f18565b9050612f138282613205565b919050565b6000604051905090565b600067ffffffffffffffff821115612f3d57612f3c61333d565b5b602082029050602081019050919050565b600067ffffffffffffffff821115612f6957612f6861333d565b5b612f728261336c565b9050602081019050919050565b600067ffffffffffffffff821115612f9a57612f9961333d565b5b612fa38261336c565b9050602081019050919050565b60008190508160005260206000209050919050565b600081519050919050565b600081519050919050565b600082825260208201905092915050565b600082825260208201905092915050565b600081905092915050565b600061301382613187565b915061301e83613187565b9250827fffffffffffffffffffffffffffffffffffffffffffffffffffffffffffffffff03821115613053576130526132b0565b5b828201905092915050565b600061306982613187565b915061307483613187565b925082613084576130836132df565b5b828204905092915050565b600061309a82613187565b91506130a583613187565b9250817fffffffffffffffffffffffffffffffffffffffffffffffffffffffffffffffff04831182151516156130de576130dd6132b0565b5b828202905092915050565b60006130f482613187565b91506130ff83613187565b925082821015613112576131116132b0565b5b828203905092915050565b600061312882613167565b9050919050565b60008115159050919050565b60007fffffffff0000000000000000000000000000000000000000000000000000000082169050919050565b600073ffffffffffffffffffffffffffffffffffffffff82169050919050565b6000819050919050565b82818337600083830152505050565b60005b838110156131be5780820151818401526020810190506131a3565b838111156131cd576000848401525b50505050565b600060028204905060018216806131eb57607f821691505b602082108114156131ff576131fe61330e565b5b50919050565b61320e8261336c565b810181811067ffffffffffffffff8211171561322d5761322c61333d565b5b80604052505050565b600061324182613187565b91507fffffffffffffffffffffffffffffffffffffffffffffffffffffffffffffffff821415613274576132736132b0565b5b600182019050919050565b600061328a82613187565b915061329583613187565b9250826132a5576132a46132df565b5b828206905092915050565b7f4e487b7100000000000000000000000000000000000000000000000000000000600052601160045260246000fd5b7f4e487b7100000000000000000000000000000000000000000000000000000000600052601260045260246000fd5b7f4e487b7100000000000000000000000000000000000000000000000000000000600052602260045260246000fd5b7f4e487b7100000000000000000000000000000000000000000000000000000000600052604160045260246000fd5b6000601f19601f8301169050919050565b7f68747470733a2f2f6e6674707265766965772e30786465762e636f6465732f3f60008201527f636f64653d000000000000000000000000000000000000000000000000000000602082015250565b7f4552433732313a207472616e7366657220746f206e6f6e20455243373231526560008201527f63656976657220696d706c656d656e7465720000000000000000000000000000602082015250565b7f222c000000000000000000000000000000000000000000000000000000000000600082015250565b7f4552433732313a207472616e736665722066726f6d20696e636f72726563742060008201527f6f776e6572000000000000000000000000000000000000000000000000000000602082015250565b7f4552433732313a20746f6b656e20616c7265616479206d696e74656400000000600082015250565b7f226465736372697074696f6e223a20224120636f6c6c656374696f6e20666f7260008201527f207265616c206f6e6573222c0000000000000000000000000000000000000000602082015250565b7f4552433732313a207472616e7366657220746f20746865207a65726f2061646460008201527f7265737300000000000000000000000000000000000000000000000000000000602082015250565b7f4552433732313a20617070726f766520746f2063616c6c657200000000000000600082015250565b7f4552433732313a206f70657261746f7220717565727920666f72206e6f6e657860008201527f697374656e7420746f6b656e0000000000000000000000000000000000000000602082015250565b7f3c2f746578743e3c2f7376673e00000000000000000000000000000000000000600082015250565b7f4552433732313a20617070726f76652063616c6c6572206973206e6f74206f7760008201527f6e6572206e6f7220617070726f76656420666f7220616c6c0000000000000000602082015250565b7f4552433732313a2062616c616e636520717565727920666f7220746865207a6560008201527f726f206164647265737300000000000000000000000000000000000000000000602082015250565b7f4552433732313a206f776e657220717565727920666f72206e6f6e657869737460008201527f656e7420746f6b656e0000000000000000000000000000000000000000000000602082015250565b7f45524337323155524953746f726167653a2055524920736574206f66206e6f6e60008201527f6578697374656e7420746f6b656e000000000000000000000000000000000000602082015250565b7f22696d616765223a2022646174613a696d6167652f7376672b786d6c3b62617360008201527f6536342c00000000000000000000000000000000000000000000000000000000602082015250565b7f227d000000000000000000000000000000000000000000000000000000000000600082015250565b7f4552433732313a206d696e7420746f20746865207a65726f2061646472657373600082015250565b7f45524337323155524953746f726167653a2055524920717565727920666f722060008201527f6e6f6e6578697374656e7420746f6b656e000000000000000000000000000000602082015250565b7f4552433732313a20617070726f76656420717565727920666f72206e6f6e657860008201527f697374656e7420746f6b656e0000000000000000000000000000000000000000602082015250565b7f4552433732314d657461646174613a2055524920717565727920666f72206e6f60008201527f6e6578697374656e7420746f6b656e0000000000000000000000000000000000602082015250565b7f7b226e616d65223a202200000000000000000000000000000000000000000000600082015250565b7f4552433732313a20617070726f76616c20746f2063757272656e74206f776e6560008201527f7200000000000000000000000000000000000000000000000000000000000000602082015250565b7f46495253545f574f524400000000000000000000000000000000000000000000600082015250565b7f646174613a6170706c69636174696f6e2f6a736f6e3b6261736536342c000000600082015250565b7f4552433732313a207472616e736665722063616c6c6572206973206e6f74206f60008201527f776e6572206e6f7220617070726f766564000000000000000000000000000000602082015250565b6139e78161311d565b81146139f257600080fd5b50565b6139fe8161312f565b8114613a0957600080fd5b50565b613a158161313b565b8114613a2057600080fd5b50565b613a2c81613187565b8114613a3757600080fd5b5056fe416e204e465420772f20494420257320686173206265656e206d696e74656420746f2025734142434445464748494a4b4c4d4e4f505152535455565758595a6162636465666768696a6b6c6d6e6f707172737475767778797a303132333435363738392b2fa26469706673582212209259a5240bec80d6e60d9cd08e77de75b8b8ba8794718c9870d5627021e2d04064736f6c634300080100333c73766720786d6c6e733d27687474703a2f2f7777772e77332e6f72672f323030302f73766727207072657365727665417370656374526174696f3d27784d696e594d696e206d656574272076696577426f783d273020302033353020333530273e3c7374796c653e2e62617365207b2066696c6c3a2077686974653b20666f6e742d66616d696c793a2073657269663b20666f6e742d73697a653a20323470783b207d3c2f7374796c653e3c726563742077696474683d273130302527206865696768743d2731303025272066696c6c3d27626c61636b27202f3e3c7465787420783d273530252720793d273530252720636c6173733d27626173652720646f6d696e616e742d626173656c696e653d276d6964646c652720746578742d616e63686f723d276d6964646c65273e",
  "devdoc": {
    "kind": "dev",
    "methods": {
      "approve(address,uint256)": {
        "details": "See {IERC721-approve}."
      },
      "balanceOf(address)": {
        "details": "See {IERC721-balanceOf}."
      },
      "getApproved(uint256)": {
        "details": "See {IERC721-getApproved}."
      },
      "isApprovedForAll(address,address)": {
        "details": "See {IERC721-isApprovedForAll}."
      },
      "name()": {
        "details": "See {IERC721Metadata-name}."
      },
      "ownerOf(uint256)": {
        "details": "See {IERC721-ownerOf}."
      },
      "safeTransferFrom(address,address,uint256)": {
        "details": "See {IERC721-safeTransferFrom}."
      },
      "safeTransferFrom(address,address,uint256,bytes)": {
        "details": "See {IERC721-safeTransferFrom}."
      },
      "setApprovalForAll(address,bool)": {
        "details": "See {IERC721-setApprovalForAll}."
      },
      "supportsInterface(bytes4)": {
        "details": "See {IERC165-supportsInterface}."
      },
      "symbol()": {
        "details": "See {IERC721Metadata-symbol}."
      },
      "tokenURI(uint256)": {
        "details": "See {IERC721Metadata-tokenURI}."
      },
      "transferFrom(address,address,uint256)": {
        "details": "See {IERC721-transferFrom}."
      }
    },
    "version": 1
  },
  "userdoc": {
    "kind": "user",
    "methods": {},
    "version": 1
  },
  "storageLayout": {
    "storage": [
      {
        "astId": 25,
        "contract": "contracts/RadNFT.sol:RadNFT",
        "label": "_name",
        "offset": 0,
        "slot": "0",
        "type": "t_string_storage"
      },
      {
        "astId": 27,
        "contract": "contracts/RadNFT.sol:RadNFT",
        "label": "_symbol",
        "offset": 0,
        "slot": "1",
        "type": "t_string_storage"
      },
      {
        "astId": 31,
        "contract": "contracts/RadNFT.sol:RadNFT",
        "label": "_owners",
        "offset": 0,
        "slot": "2",
        "type": "t_mapping(t_uint256,t_address)"
      },
      {
        "astId": 35,
        "contract": "contracts/RadNFT.sol:RadNFT",
        "label": "_balances",
        "offset": 0,
        "slot": "3",
        "type": "t_mapping(t_address,t_uint256)"
      },
      {
        "astId": 39,
        "contract": "contracts/RadNFT.sol:RadNFT",
        "label": "_tokenApprovals",
        "offset": 0,
        "slot": "4",
        "type": "t_mapping(t_uint256,t_address)"
      },
      {
        "astId": 45,
        "contract": "contracts/RadNFT.sol:RadNFT",
        "label": "_operatorApprovals",
        "offset": 0,
        "slot": "5",
        "type": "t_mapping(t_address,t_mapping(t_address,t_bool))"
      },
      {
        "astId": 1012,
        "contract": "contracts/RadNFT.sol:RadNFT",
        "label": "_tokenURIs",
        "offset": 0,
        "slot": "6",
        "type": "t_mapping(t_uint256,t_string_storage)"
      },
      {
        "astId": 1800,
        "contract": "contracts/RadNFT.sol:RadNFT",
        "label": "_tokenIds",
        "offset": 0,
        "slot": "7",
        "type": "t_struct(Counter)1477_storage"
      },
      {
        "astId": 1803,
        "contract": "contracts/RadNFT.sol:RadNFT",
        "label": "baseSvg",
        "offset": 0,
        "slot": "8",
        "type": "t_string_storage"
      },
      {
        "astId": 1824,
        "contract": "contracts/RadNFT.sol:RadNFT",
        "label": "firstWords",
        "offset": 0,
        "slot": "9",
        "type": "t_array(t_string_storage)dyn_storage"
      },
      {
        "astId": 1845,
        "contract": "contracts/RadNFT.sol:RadNFT",
        "label": "secondWords",
        "offset": 0,
        "slot": "10",
        "type": "t_array(t_string_storage)dyn_storage"
      },
      {
        "astId": 1866,
        "contract": "contracts/RadNFT.sol:RadNFT",
        "label": "thirdWords",
        "offset": 0,
        "slot": "11",
        "type": "t_array(t_string_storage)dyn_storage"
      }
    ],
    "types": {
      "t_address": {
        "encoding": "inplace",
        "label": "address",
        "numberOfBytes": "20"
      },
      "t_array(t_string_storage)dyn_storage": {
        "base": "t_string_storage",
        "encoding": "dynamic_array",
        "label": "string[]",
        "numberOfBytes": "32"
      },
      "t_bool": {
        "encoding": "inplace",
        "label": "bool",
        "numberOfBytes": "1"
      },
      "t_mapping(t_address,t_bool)": {
        "encoding": "mapping",
        "key": "t_address",
        "label": "mapping(address => bool)",
        "numberOfBytes": "32",
        "value": "t_bool"
      },
      "t_mapping(t_address,t_mapping(t_address,t_bool))": {
        "encoding": "mapping",
        "key": "t_address",
        "label": "mapping(address => mapping(address => bool))",
        "numberOfBytes": "32",
        "value": "t_mapping(t_address,t_bool)"
      },
      "t_mapping(t_address,t_uint256)": {
        "encoding": "mapping",
        "key": "t_address",
        "label": "mapping(address => uint256)",
        "numberOfBytes": "32",
        "value": "t_uint256"
      },
      "t_mapping(t_uint256,t_address)": {
        "encoding": "mapping",
        "key": "t_uint256",
        "label": "mapping(uint256 => address)",
        "numberOfBytes": "32",
        "value": "t_address"
      },
      "t_mapping(t_uint256,t_string_storage)": {
        "encoding": "mapping",
        "key": "t_uint256",
        "label": "mapping(uint256 => string)",
        "numberOfBytes": "32",
        "value": "t_string_storage"
      },
      "t_string_storage": {
        "encoding": "bytes",
        "label": "string",
        "numberOfBytes": "32"
      },
      "t_struct(Counter)1477_storage": {
        "encoding": "inplace",
        "label": "struct Counters.Counter",
        "members": [
          {
            "astId": 1476,
            "contract": "contracts/RadNFT.sol:RadNFT",
            "label": "_value",
            "offset": 0,
            "slot": "0",
            "type": "t_uint256"
          }
        ],
        "numberOfBytes": "32"
      },
      "t_uint256": {
        "encoding": "inplace",
        "label": "uint256",
        "numberOfBytes": "32"
      }
    }
  }
}