{
  "address": "0xa991B74F8830E52801DB997730265BC1a7682A2d",
  "abi": [
    {
      "inputs": [],
      "stateMutability": "nonpayable",
      "type": "constructor"
    },
    {
      "anonymous": false,
      "inputs": [
        {
          "indexed": true,
          "internalType": "address",
          "name": "owner",
          "type": "address"
        },
        {
          "indexed": true,
          "internalType": "address",
          "name": "approved",
          "type": "address"
        },
        {
          "indexed": true,
          "internalType": "uint256",
          "name": "tokenId",
          "type": "uint256"
        }
      ],
      "name": "Approval",
      "type": "event"
    },
    {
      "anonymous": false,
      "inputs": [
        {
          "indexed": true,
          "internalType": "address",
          "name": "owner",
          "type": "address"
        },
        {
          "indexed": true,
          "internalType": "address",
          "name": "operator",
          "type": "address"
        },
        {
          "indexed": false,
          "internalType": "bool",
          "name": "approved",
          "type": "bool"
        }
      ],
      "name": "ApprovalForAll",
      "type": "event"
    },
    {
      "anonymous": false,
      "inputs": [
        {
          "indexed": false,
          "internalType": "address",
          "name": "sender",
          "type": "address"
        },
        {
          "indexed": false,
          "internalType": "uint256",
          "name": "tokenId",
          "type": "uint256"
        }
      ],
      "name": "NewRadNFTMinted",
      "type": "event"
    },
    {
      "anonymous": false,
      "inputs": [
        {
          "indexed": true,
          "internalType": "address",
          "name": "from",
          "type": "address"
        },
        {
          "indexed": true,
          "internalType": "address",
          "name": "to",
          "type": "address"
        },
        {
          "indexed": true,
          "internalType": "uint256",
          "name": "tokenId",
          "type": "uint256"
        }
      ],
      "name": "Transfer",
      "type": "event"
    },
    {
      "inputs": [],
      "name": "MAX_NFTS",
      "outputs": [
        {
          "internalType": "uint256",
          "name": "",
          "type": "uint256"
        }
      ],
      "stateMutability": "view",
      "type": "function"
    },
    {
      "inputs": [
        {
          "internalType": "address",
          "name": "to",
          "type": "address"
        },
        {
          "internalType": "uint256",
          "name": "tokenId",
          "type": "uint256"
        }
      ],
      "name": "approve",
      "outputs": [],
      "stateMutability": "nonpayable",
      "type": "function"
    },
    {
      "inputs": [
        {
          "internalType": "address",
          "name": "owner",
          "type": "address"
        }
      ],
      "name": "balanceOf",
      "outputs": [
        {
          "internalType": "uint256",
          "name": "",
          "type": "uint256"
        }
      ],
      "stateMutability": "view",
      "type": "function"
    },
    {
      "inputs": [
        {
          "internalType": "uint256",
          "name": "tokenId",
          "type": "uint256"
        }
      ],
      "name": "getApproved",
      "outputs": [
        {
          "internalType": "address",
          "name": "",
          "type": "address"
        }
      ],
      "stateMutability": "view",
      "type": "function"
    },
    {
      "inputs": [],
      "name": "getTotalMinted",
      "outputs": [
        {
          "internalType": "uint256",
          "name": "",
          "type": "uint256"
        }
      ],
      "stateMutability": "view",
      "type": "function"
    },
    {
      "inputs": [
        {
          "internalType": "address",
          "name": "owner",
          "type": "address"
        },
        {
          "internalType": "address",
          "name": "operator",
          "type": "address"
        }
      ],
      "name": "isApprovedForAll",
      "outputs": [
        {
          "internalType": "bool",
          "name": "",
          "type": "bool"
        }
      ],
      "stateMutability": "view",
      "type": "function"
    },
    {
      "inputs": [],
      "name": "makeARadNFT",
      "outputs": [],
      "stateMutability": "nonpayable",
      "type": "function"
    },
    {
      "inputs": [],
      "name": "name",
      "outputs": [
        {
          "internalType": "string",
          "name": "",
          "type": "string"
        }
      ],
      "stateMutability": "view",
      "type": "function"
    },
    {
      "inputs": [
        {
          "internalType": "uint256",
          "name": "tokenId",
          "type": "uint256"
        }
      ],
      "name": "ownerOf",
      "outputs": [
        {
          "internalType": "address",
          "name": "",
          "type": "address"
        }
      ],
      "stateMutability": "view",
      "type": "function"
    },
    {
      "inputs": [
        {
          "internalType": "uint256",
          "name": "tokenId",
          "type": "uint256"
        },
        {
          "internalType": "string[]",
          "name": "words",
          "type": "string[]"
        }
      ],
      "name": "pickRandomWord",
      "outputs": [
        {
          "internalType": "string",
          "name": "",
          "type": "string"
        }
      ],
      "stateMutability": "pure",
      "type": "function"
    },
    {
      "inputs": [
        {
          "internalType": "address",
          "name": "from",
          "type": "address"
        },
        {
          "internalType": "address",
          "name": "to",
          "type": "address"
        },
        {
          "internalType": "uint256",
          "name": "tokenId",
          "type": "uint256"
        }
      ],
      "name": "safeTransferFrom",
      "outputs": [],
      "stateMutability": "nonpayable",
      "type": "function"
    },
    {
      "inputs": [
        {
          "internalType": "address",
          "name": "from",
          "type": "address"
        },
        {
          "internalType": "address",
          "name": "to",
          "type": "address"
        },
        {
          "internalType": "uint256",
          "name": "tokenId",
          "type": "uint256"
        },
        {
          "internalType": "bytes",
          "name": "_data",
          "type": "bytes"
        }
      ],
      "name": "safeTransferFrom",
      "outputs": [],
      "stateMutability": "nonpayable",
      "type": "function"
    },
    {
      "inputs": [
        {
          "internalType": "address",
          "name": "operator",
          "type": "address"
        },
        {
          "internalType": "bool",
          "name": "approved",
          "type": "bool"
        }
      ],
      "name": "setApprovalForAll",
      "outputs": [],
      "stateMutability": "nonpayable",
      "type": "function"
    },
    {
      "inputs": [
        {
          "internalType": "bytes4",
          "name": "interfaceId",
          "type": "bytes4"
        }
      ],
      "name": "supportsInterface",
      "outputs": [
        {
          "internalType": "bool",
          "name": "",
          "type": "bool"
        }
      ],
      "stateMutability": "view",
      "type": "function"
    },
    {
      "inputs": [],
      "name": "symbol",
      "outputs": [
        {
          "internalType": "string",
          "name": "",
          "type": "string"
        }
      ],
      "stateMutability": "view",
      "type": "function"
    },
    {
      "inputs": [
        {
          "internalType": "uint256",
          "name": "tokenId",
          "type": "uint256"
        }
      ],
      "name": "tokenURI",
      "outputs": [
        {
          "internalType": "string",
          "name": "",
          "type": "string"
        }
      ],
      "stateMutability": "view",
      "type": "function"
    },
    {
      "inputs": [
        {
          "internalType": "address",
          "name": "from",
          "type": "address"
        },
        {
          "internalType": "address",
          "name": "to",
          "type": "address"
        },
        {
          "internalType": "uint256",
          "name": "tokenId",
          "type": "uint256"
        }
      ],
      "name": "transferFrom",
      "outputs": [],
      "stateMutability": "nonpayable",
      "type": "function"
    }
  ],
  "transactionHash": "0x03ad6b9b4ab7d02872fa3bbd7ccb29e285719d5e35a67a48ad11dae12432d6c7",
  "args": [],
  "numDeployments": 6,
  "solcInputHash": "5b752273f88480f819bc90e1c6a65ef1",
  "bytecode": "0x608060405260405180610100016040528060d38152602001620050e560d39139600890805190602001906200003692919062000fca565b50604051806080016040528060568152602001620051b860569139600990805190602001906200006892919062000fca565b506040518061022001604052806040518060400160405280600381526020017f476f64000000000000000000000000000000000000000000000000000000000081525081526020016040518060400160405280600481526020017f46616b650000000000000000000000000000000000000000000000000000000081525081526020016040518060400160405280600481526020017f5265616c0000000000000000000000000000000000000000000000000000000081525081526020016040518060400160405280600581526020017f4167696c6500000000000000000000000000000000000000000000000000000081525081526020016040518060400160405280600481526020017f536869740000000000000000000000000000000000000000000000000000000081525081526020016040518060400160405280600581526020017f517569636b00000000000000000000000000000000000000000000000000000081525081526020016040518060400160405280600b81526020017f436f6d706574657469766500000000000000000000000000000000000000000081525081526020016040518060400160405280600781526020017f466f63757365640000000000000000000000000000000000000000000000000081525081526020016040518060400160405280600981526020017f436f6e666964656e74000000000000000000000000000000000000000000000081525081526020016040518060400160405280600681526020017f476966746564000000000000000000000000000000000000000000000000000081525081526020016040518060400160405280600481526020017f44756d620000000000000000000000000000000000000000000000000000000081525081526020016040518060400160405280600b81526020017f4f75747374616e64696e6700000000000000000000000000000000000000000081525081526020016040518060400160405280600981526020017f486f6e6f7261626c65000000000000000000000000000000000000000000000081525081526020016040518060400160405280600581526020017f4c6f73657200000000000000000000000000000000000000000000000000000081525081526020016040518060400160405280600881526020017f4368616d70696f6e00000000000000000000000000000000000000000000000081525081526020016040518060400160405280600981526020017f416461707461626c65000000000000000000000000000000000000000000000081525081526020016040518060400160405280600481526020017f536c6f7700000000000000000000000000000000000000000000000000000000815250815250600a906011620004709291906200105b565b506040518061022001604052806040518060400160405280600781526020017f466572726172690000000000000000000000000000000000000000000000000081525081526020016040518060400160405280600881526020017f4d6572636564657300000000000000000000000000000000000000000000000081525081526020016040518060400160405280600781526020017f52656442756c6c0000000000000000000000000000000000000000000000000081525081526020016040518060400160405280600681526020017f416c70696e65000000000000000000000000000000000000000000000000000081525081526020016040518060400160405280600481526020017f486161730000000000000000000000000000000000000000000000000000000081525081526020016040518060400160405280600481526020017f416c66610000000000000000000000000000000000000000000000000000000081525081526020016040518060400160405280600a81526020017f416c70686154617572690000000000000000000000000000000000000000000081525081526020016040518060400160405280600781526020017f4d634c6172656e0000000000000000000000000000000000000000000000000081525081526020016040518060400160405280600b81526020017f4173746f6e4d617274696e00000000000000000000000000000000000000000081525081526020016040518060400160405280600881526020017f57696c6c69616d7300000000000000000000000000000000000000000000000081525081526020016040518060400160405280600581526020017f4c6f74757300000000000000000000000000000000000000000000000000000081525081526020016040518060400160405280600781526020017f52656e61756c740000000000000000000000000000000000000000000000000081525081526020016040518060400160405280600881526020017f4d6173657261746900000000000000000000000000000000000000000000000081525081526020016040518060400160405280600681526020017f546f796f7461000000000000000000000000000000000000000000000000000081525081526020016040518060400160405280600581526020017f486f6e646100000000000000000000000000000000000000000000000000000081525081526020016040518060400160405280600781526020017f506f72736368650000000000000000000000000000000000000000000000000081525081526020016040518060400160405280600481526020017f466f726400000000000000000000000000000000000000000000000000000000815250815250600b906011620008789291906200105b565b506040518061022001604052806040518060400160405280600781526020017f4c65636c6572630000000000000000000000000000000000000000000000000081525081526020016040518060400160405280600581526020017f5361696e7a00000000000000000000000000000000000000000000000000000081525081526020016040518060400160405280600a81526020017f5665727374617070656e0000000000000000000000000000000000000000000081525081526020016040518060400160405280600781526020017f52757373656c6c0000000000000000000000000000000000000000000000000081525081526020016040518060400160405280600881526020017f48616d696c746f6e00000000000000000000000000000000000000000000000081525081526020016040518060400160405280600481526020017f4f636f6e0000000000000000000000000000000000000000000000000000000081525081526020016040518060400160405280600581526020017f506572657a00000000000000000000000000000000000000000000000000000081525081526020016040518060400160405280600981526020017f4d61676e757373656e000000000000000000000000000000000000000000000081525081526020016040518060400160405280600681526020017f426f74746173000000000000000000000000000000000000000000000000000081525081526020016040518060400160405280600681526020017f4e6f72726973000000000000000000000000000000000000000000000000000081525081526020016040518060400160405280600781526020017f5473756e6f64610000000000000000000000000000000000000000000000000081525081526020016040518060400160405280600581526020017f4761736c7900000000000000000000000000000000000000000000000000000081525081526020016040518060400160405280600681526020017f416c6f6e736f000000000000000000000000000000000000000000000000000081525081526020016040518060400160405280600481526020017f5a686f750000000000000000000000000000000000000000000000000000000081525081526020016040518060400160405280600a81526020017f536368756d61636865720000000000000000000000000000000000000000000081525081526020016040518060400160405280600981526020017f52696363696172646f000000000000000000000000000000000000000000000081525081526020016040518060400160405280600681526020017f56657474656c0000000000000000000000000000000000000000000000000000815250815250600c90601162000c809291906200105b565b506040518060c001604052806040518060400160405280600381526020017f726564000000000000000000000000000000000000000000000000000000000081525081526020016040518060400160405280600781526020017f233038433241380000000000000000000000000000000000000000000000000081525081526020016040518060400160405280600581526020017f626c61636b00000000000000000000000000000000000000000000000000000081525081526020016040518060400160405280600681526020017f79656c6c6f77000000000000000000000000000000000000000000000000000081525081526020016040518060400160405280600481526020017f626c75650000000000000000000000000000000000000000000000000000000081525081526020016040518060400160405280600581526020017f677265656e000000000000000000000000000000000000000000000000000000815250815250600d90600662000dfe929190620010c2565b5034801562000e0c57600080fd5b506040518060400160405280600681526020017f5261644e465400000000000000000000000000000000000000000000000000008152506040518060400160405280600381526020017f5241440000000000000000000000000000000000000000000000000000000000815250816000908051906020019062000e9192919062000fca565b50806001908051906020019062000eaa92919062000fca565b50505062000ef86040518060400160405280600b81526020017f546869732069732052616400000000000000000000000000000000000000000081525062000efe60201b620010e21760201c565b620012e3565b62000f9e8160405160240162000f159190620011f7565b6040516020818303038152906040527f41304fac000000000000000000000000000000000000000000000000000000007bffffffffffffffffffffffffffffffffffffffffffffffffffffffff19166020820180517bffffffffffffffffffffffffffffffffffffffffffffffffffffffff838183161783525050505062000fa160201b60201c565b50565b60008151905060006a636f6e736f6c652e6c6f679050602083016000808483855afa5050505050565b82805462000fd8906200126d565b90600052602060002090601f01602090048101928262000ffc576000855562001048565b82601f106200101757805160ff191683800117855562001048565b8280016001018555821562001048579182015b82811115620010475782518255916020019190600101906200102a565b5b50905062001057919062001129565b5090565b828054828255906000526020600020908101928215620010af579160200282015b82811115620010ae5782518290805190602001906200109d92919062000fca565b50916020019190600101906200107c565b5b509050620010be919062001148565b5090565b82805482825590600052602060002090810192821562001116579160200282015b82811115620011155782518290805190602001906200110492919062000fca565b5091602001919060010190620010e3565b5b50905062001125919062001148565b5090565b5b80821115620011445760008160009055506001016200112a565b5090565b5b808211156200116c576000818162001162919062001170565b5060010162001149565b5090565b5080546200117e906200126d565b6000825580601f10620011925750620011b3565b601f016020900490600052602060002090810190620011b2919062001129565b5b50565b6000620011c3826200121b565b620011cf818562001226565b9350620011e181856020860162001237565b620011ec81620012d2565b840191505092915050565b60006020820190508181036000830152620012138184620011b6565b905092915050565b600081519050919050565b600082825260208201905092915050565b60005b83811015620012575780820151818401526020810190506200123a565b8381111562001267576000848401525b50505050565b600060028204905060018216806200128657607f821691505b602082108114156200129d576200129c620012a3565b5b50919050565b7f4e487b7100000000000000000000000000000000000000000000000000000000600052602260045260246000fd5b6000601f19601f8301169050919050565b613df280620012f36000396000f3fe608060405234801561001057600080fd5b506004361061010b5760003560e01c80636352211e116100a25780639da50ee2116100715780639da50ee2146102cc578063a22cb465146102d6578063b88d4fde146102f2578063c87b56dd1461030e578063e985e9c51461033e5761010b565b80636352211e1461021e57806370a082311461024e57806375af75fe1461027e57806395d89b41146102ae5761010b565b8063095ea7b3116100de578063095ea7b3146101ac5780630ca1c5c9146101c857806323b872dd146101e657806342842e0e146102025761010b565b806301ffc9a71461011057806306fdde0314610140578063081812fc1461015e578063093d8c641461018e575b600080fd5b61012a6004803603810190610125919061271b565b61036e565b6040516101379190612f12565b60405180910390f35b610148610450565b6040516101559190612f2d565b60405180910390f35b6101786004803603810190610173919061276d565b6104e2565b6040516101859190612e82565b60405180910390f35b610196610567565b6040516101a391906131ad565b60405180910390f35b6101c660048036038101906101c191906126df565b61056c565b005b6101d0610684565b6040516101dd91906131ad565b60405180910390f35b61020060048036038101906101fb91906125d9565b610695565b005b61021c600480360381019061021791906125d9565b6106f5565b005b6102386004803603810190610233919061276d565b610715565b6040516102459190612e82565b60405180910390f35b61026860048036038101906102639190612574565b6107c7565b60405161027591906131ad565b60405180910390f35b61029860048036038101906102939190612796565b61087f565b6040516102a59190612f2d565b60405180910390f35b6102b661090e565b6040516102c39190612f2d565b60405180910390f35b6102d46109a0565b005b6102f060048036038101906102eb91906126a3565b610e84565b005b61030c60048036038101906103079190612628565b610e9a565b005b6103286004803603810190610323919061276d565b610efc565b6040516103359190612f2d565b60405180910390f35b6103586004803603810190610353919061259d565b61104e565b6040516103659190612f12565b60405180910390f35b60007f80ac58cd000000000000000000000000000000000000000000000000000000007bffffffffffffffffffffffffffffffffffffffffffffffffffffffff1916827bffffffffffffffffffffffffffffffffffffffffffffffffffffffff1916148061043957507f5b5e139f000000000000000000000000000000000000000000000000000000007bffffffffffffffffffffffffffffffffffffffffffffffffffffffff1916827bffffffffffffffffffffffffffffffffffffffffffffffffffffffff1916145b8061044957506104488261117b565b5b9050919050565b60606000805461045f9061349e565b80601f016020809104026020016040519081016040528092919081815260200182805461048b9061349e565b80156104d85780601f106104ad576101008083540402835291602001916104d8565b820191906000526020600020905b8154815290600101906020018083116104bb57829003601f168201915b5050505050905090565b60006104ed826111e5565b61052c576040517f08c379a00000000000000000000000000000000000000000000000000000000081526004016105239061312d565b60405180910390fd5b6004600083815260200190815260200160002060009054906101000a900473ffffffffffffffffffffffffffffffffffffffff169050919050565b603281565b600061057782610715565b90508073ffffffffffffffffffffffffffffffffffffffff168373ffffffffffffffffffffffffffffffffffffffff1614156105e8576040517f08c379a00000000000000000000000000000000000000000000000000000000081526004016105df9061316d565b60405180910390fd5b8073ffffffffffffffffffffffffffffffffffffffff16610607611251565b73ffffffffffffffffffffffffffffffffffffffff161480610636575061063581610630611251565b61104e565b5b610675576040517f08c379a000000000000000000000000000000000000000000000000000000000815260040161066c9061304d565b60405180910390fd5b61067f8383611259565b505050565b60006106906007611312565b905090565b6106a66106a0611251565b82611320565b6106e5576040517f08c379a00000000000000000000000000000000000000000000000000000000081526004016106dc9061318d565b60405180910390fd5b6106f08383836113fe565b505050565b61071083838360405180602001604052806000815250610e9a565b505050565b6000806002600084815260200190815260200160002060009054906101000a900473ffffffffffffffffffffffffffffffffffffffff169050600073ffffffffffffffffffffffffffffffffffffffff168173ffffffffffffffffffffffffffffffffffffffff1614156107be576040517f08c379a00000000000000000000000000000000000000000000000000000000081526004016107b59061308d565b60405180910390fd5b80915050919050565b60008073ffffffffffffffffffffffffffffffffffffffff168273ffffffffffffffffffffffffffffffffffffffff161415610838576040517f08c379a000000000000000000000000000000000000000000000000000000000815260040161082f9061306d565b60405180910390fd5b600360008373ffffffffffffffffffffffffffffffffffffffff1673ffffffffffffffffffffffffffffffffffffffff168152602001908152602001600020549050919050565b606060006108b361088f85611665565b60405160200161089f9190612e1c565b604051602081830303815290604052611812565b90508251816108c2919061354a565b90508281815181106108fd577f4e487b7100000000000000000000000000000000000000000000000000000000600052603260045260246000fd5b602002602001015191505092915050565b60606001805461091d9061349e565b80601f01602080910402602001604051908101604052809291908181526020018280546109499061349e565b80156109965780601f1061096b57610100808354040283529160200191610996565b820191906000526020600020905b81548152906001019060200180831161097957829003601f168201915b5050505050905090565b60326109ac6007611312565b106109ec576040517f08c379a00000000000000000000000000000000000000000000000000000000081526004016109e3906130ed565b60405180910390fd5b60006109f86007611312565b90506000610ad782600a805480602002602001604051908101604052809291908181526020016000905b82821015610ace578382906000526020600020018054610a419061349e565b80601f0160208091040260200160405190810160405280929190818152602001828054610a6d9061349e565b8015610aba5780601f10610a8f57610100808354040283529160200191610aba565b820191906000526020600020905b815481529060010190602001808311610a9d57829003601f168201915b505050505081526020019060010190610a22565b5050505061087f565b90506000610bb683600b805480602002602001604051908101604052809291908181526020016000905b82821015610bad578382906000526020600020018054610b209061349e565b80601f0160208091040260200160405190810160405280929190818152602001828054610b4c9061349e565b8015610b995780601f10610b6e57610100808354040283529160200191610b99565b820191906000526020600020905b815481529060010190602001808311610b7c57829003601f168201915b505050505081526020019060010190610b01565b5050505061087f565b90506000610c9584600c805480602002602001604051908101604052809291908181526020016000905b82821015610c8c578382906000526020600020018054610bff9061349e565b80601f0160208091040260200160405190810160405280929190818152602001828054610c2b9061349e565b8015610c785780601f10610c4d57610100808354040283529160200191610c78565b820191906000526020600020905b815481529060010190602001808311610c5b57829003601f168201915b505050505081526020019060010190610be0565b5050505061087f565b90506000838383604051602001610cae93929190612d25565b60405160208183030381529060405290506000610cca86611845565b90506000600882600985604051602001610ce79493929190612d56565b6040516020818303038152906040529050610d366040518060400160405280601581526020017f0a2d2d2d2d2d2d2d2d2d2d2d2d2d2d2d2d2d2d2d2d00000000000000000000008152506110e2565b610d3f816110e2565b610d7d6040518060400160405280601581526020017f2d2d2d2d2d2d2d2d2d2d2d2d2d2d2d2d2d2d2d2d0a00000000000000000000008152506110e2565b6000610db184610d8c84611963565b604051602001610d9d929190612dc1565b604051602081830303815290604052611963565b9050600081604051602001610dc69190612e3e565b6040516020818303038152906040529050610dff81604051602001610deb9190612d9f565b6040516020818303038152906040526110e2565b610e09338a611b21565b610e138982611b3f565b7f7b4559a4ff2bda4e3c0e0b77ae3c2651cf5abc8ea2821be580b0c5e36f33c718338a604051610e44929190612ee9565b60405180910390a1610e566007611bb3565b610e79604051806060016040528060258152602001613d58602591398a33611bc9565b505050505050505050565b610e96610e8f611251565b8383611c68565b5050565b610eab610ea5611251565b83611320565b610eea576040517f08c379a0000000000000000000000000000000000000000000000000000000008152600401610ee19061318d565b60405180910390fd5b610ef684848484611dd5565b50505050565b6060610f07826111e5565b610f46576040517f08c379a0000000000000000000000000000000000000000000000000000000008152600401610f3d9061310d565b60405180910390fd5b6000600660008481526020019081526020016000208054610f669061349e565b80601f0160208091040260200160405190810160405280929190818152602001828054610f929061349e565b8015610fdf5780601f10610fb457610100808354040283529160200191610fdf565b820191906000526020600020905b815481529060010190602001808311610fc257829003601f168201915b505050505090506000610ff0611e31565b9050600081511415611006578192505050611049565b60008251111561103b578082604051602001611023929190612d01565b60405160208183030381529060405292505050611049565b61104484611e48565b925050505b919050565b6000600560008473ffffffffffffffffffffffffffffffffffffffff1673ffffffffffffffffffffffffffffffffffffffff16815260200190815260200160002060008373ffffffffffffffffffffffffffffffffffffffff1673ffffffffffffffffffffffffffffffffffffffff16815260200190815260200160002060009054906101000a900460ff16905092915050565b611178816040516024016110f69190612f2d565b6040516020818303038152906040527f41304fac000000000000000000000000000000000000000000000000000000007bffffffffffffffffffffffffffffffffffffffffffffffffffffffff19166020820180517bffffffffffffffffffffffffffffffffffffffffffffffffffffffff8381831617835250505050611eef565b50565b60007f01ffc9a7000000000000000000000000000000000000000000000000000000007bffffffffffffffffffffffffffffffffffffffffffffffffffffffff1916827bffffffffffffffffffffffffffffffffffffffffffffffffffffffff1916149050919050565b60008073ffffffffffffffffffffffffffffffffffffffff166002600084815260200190815260200160002060009054906101000a900473ffffffffffffffffffffffffffffffffffffffff1673ffffffffffffffffffffffffffffffffffffffff1614159050919050565b600033905090565b816004600083815260200190815260200160002060006101000a81548173ffffffffffffffffffffffffffffffffffffffff021916908373ffffffffffffffffffffffffffffffffffffffff160217905550808273ffffffffffffffffffffffffffffffffffffffff166112cc83610715565b73ffffffffffffffffffffffffffffffffffffffff167f8c5be1e5ebec7d5bd14f71427d1e84f3dd0314c0f7b2291e5b200ac8c7c3b92560405160405180910390a45050565b600081600001549050919050565b600061132b826111e5565b61136a576040517f08c379a00000000000000000000000000000000000000000000000000000000081526004016113619061302d565b60405180910390fd5b600061137583610715565b90508073ffffffffffffffffffffffffffffffffffffffff168473ffffffffffffffffffffffffffffffffffffffff1614806113e457508373ffffffffffffffffffffffffffffffffffffffff166113cc846104e2565b73ffffffffffffffffffffffffffffffffffffffff16145b806113f557506113f4818561104e565b5b91505092915050565b8273ffffffffffffffffffffffffffffffffffffffff1661141e82610715565b73ffffffffffffffffffffffffffffffffffffffff1614611474576040517f08c379a000000000000000000000000000000000000000000000000000000000815260040161146b90612fad565b60405180910390fd5b600073ffffffffffffffffffffffffffffffffffffffff168273ffffffffffffffffffffffffffffffffffffffff1614156114e4576040517f08c379a00000000000000000000000000000000000000000000000000000000081526004016114db90612fed565b60405180910390fd5b6114ef838383611f18565b6114fa600082611259565b6001600360008573ffffffffffffffffffffffffffffffffffffffff1673ffffffffffffffffffffffffffffffffffffffff168152602001908152602001600020600082825461154a91906133b4565b925050819055506001600360008473ffffffffffffffffffffffffffffffffffffffff1673ffffffffffffffffffffffffffffffffffffffff16815260200190815260200160002060008282546115a191906132d3565b92505081905550816002600083815260200190815260200160002060006101000a81548173ffffffffffffffffffffffffffffffffffffffff021916908373ffffffffffffffffffffffffffffffffffffffff160217905550808273ffffffffffffffffffffffffffffffffffffffff168473ffffffffffffffffffffffffffffffffffffffff167fddf252ad1be2c89b69c2b068fc378daa952ba7f163c4a11628f55a4df523b3ef60405160405180910390a4611660838383611f1d565b505050565b606060008214156116ad576040518060400160405280600181526020017f3000000000000000000000000000000000000000000000000000000000000000815250905061180d565b600082905060005b600082146116df5780806116c890613501565b915050600a826116d89190613329565b91506116b5565b60008167ffffffffffffffff811115611721577f4e487b7100000000000000000000000000000000000000000000000000000000600052604160045260246000fd5b6040519080825280601f01601f1916602001820160405280156117535781602001600182028036833780820191505090505b5090505b600085146118065760018261176c91906133b4565b9150600a8561177b919061354a565b603061178791906132d3565b60f81b8183815181106117c3577f4e487b7100000000000000000000000000000000000000000000000000000000600052603260045260246000fd5b60200101907effffffffffffffffffffffffffffffffffffffffffffffffffffffffffffff1916908160001a905350600a856117ff9190613329565b9450611757565b8093505050505b919050565b6000816040516020016118259190612cea565b6040516020818303038152906040528051906020012060001c9050919050565b6060600061187961185584611665565b6040516020016118659190612e60565b604051602081830303815290604052611812565b9050600d805490508161188c919061354a565b9050600d81815481106118c8577f4e487b7100000000000000000000000000000000000000000000000000000000600052603260045260246000fd5b9060005260206000200180546118dd9061349e565b80601f01602080910402602001604051908101604052809291908181526020018280546119099061349e565b80156119565780601f1061192b57610100808354040283529160200191611956565b820191906000526020600020905b81548152906001019060200180831161193957829003601f168201915b5050505050915050919050565b6060600082519050600081141561198c5760405180602001604052806000815250915050611b1c565b6000600360028361199d91906132d3565b6119a79190613329565b60046119b3919061335a565b905060006020826119c491906132d3565b67ffffffffffffffff811115611a03577f4e487b7100000000000000000000000000000000000000000000000000000000600052604160045260246000fd5b6040519080825280601f01601f191660200182016040528015611a355781602001600182028036833780820191505090505b5090506000604051806060016040528060408152602001613d7d604091399050600181016020830160005b86811015611ad95760038101905062ffffff818a015116603f8160121c168401518060081b905060ff603f83600c1c1686015116810190508060081b905060ff603f8360061c1686015116810190508060081b905060ff603f831686015116810190508060e01b90508084526004840193505050611a60565b506003860660018114611af35760028114611b0357611b0e565b613d3d60f01b6002830352611b0e565b603d60f81b60018303525b508484525050819450505050505b919050565b611b3b828260405180602001604052806000815250611f22565b5050565b611b48826111e5565b611b87576040517f08c379a0000000000000000000000000000000000000000000000000000000008152600401611b7e906130ad565b60405180910390fd5b80600660008481526020019081526020016000209080519060200190611bae929190612311565b505050565b6001816000016000828254019250508190555050565b611c63838383604051602401611be193929190612f4f565b6040516020818303038152906040527fe3849f79000000000000000000000000000000000000000000000000000000007bffffffffffffffffffffffffffffffffffffffffffffffffffffffff19166020820180517bffffffffffffffffffffffffffffffffffffffffffffffffffffffff8381831617835250505050611eef565b505050565b8173ffffffffffffffffffffffffffffffffffffffff168373ffffffffffffffffffffffffffffffffffffffff161415611cd7576040517f08c379a0000000000000000000000000000000000000000000000000000000008152600401611cce9061300d565b60405180910390fd5b80600560008573ffffffffffffffffffffffffffffffffffffffff1673ffffffffffffffffffffffffffffffffffffffff16815260200190815260200160002060008473ffffffffffffffffffffffffffffffffffffffff1673ffffffffffffffffffffffffffffffffffffffff16815260200190815260200160002060006101000a81548160ff0219169083151502179055508173ffffffffffffffffffffffffffffffffffffffff168373ffffffffffffffffffffffffffffffffffffffff167f17307eab39ab6107e8899845ad3d59bd9653f200f220920489ca2b5937696c3183604051611dc89190612f12565b60405180910390a3505050565b611de08484846113fe565b611dec84848484611f7d565b611e2b576040517f08c379a0000000000000000000000000000000000000000000000000000000008152600401611e2290612f8d565b60405180910390fd5b50505050565b606060405180602001604052806000815250905090565b6060611e53826111e5565b611e92576040517f08c379a0000000000000000000000000000000000000000000000000000000008152600401611e899061314d565b60405180910390fd5b6000611e9c611e31565b90506000815111611ebc5760405180602001604052806000815250611ee7565b80611ec684611665565b604051602001611ed7929190612d01565b6040516020818303038152906040525b915050919050565b60008151905060006a636f6e736f6c652e6c6f679050602083016000808483855afa5050505050565b505050565b505050565b611f2c8383612114565b611f396000848484611f7d565b611f78576040517f08c379a0000000000000000000000000000000000000000000000000000000008152600401611f6f90612f8d565b60405180910390fd5b505050565b6000611f9e8473ffffffffffffffffffffffffffffffffffffffff166122ee565b15612107578373ffffffffffffffffffffffffffffffffffffffff1663150b7a02611fc7611251565b8786866040518563ffffffff1660e01b8152600401611fe99493929190612e9d565b602060405180830381600087803b15801561200357600080fd5b505af192505050801561203457506040513d601f19601f820116820180604052508101906120319190612744565b60015b6120b7573d8060008114612064576040519150601f19603f3d011682016040523d82523d6000602084013e612069565b606091505b506000815114156120af576040517f08c379a00000000000000000000000000000000000000000000000000000000081526004016120a690612f8d565b60405180910390fd5b805181602001fd5b63150b7a0260e01b7bffffffffffffffffffffffffffffffffffffffffffffffffffffffff1916817bffffffffffffffffffffffffffffffffffffffffffffffffffffffff19161491505061210c565b600190505b949350505050565b600073ffffffffffffffffffffffffffffffffffffffff168273ffffffffffffffffffffffffffffffffffffffff161415612184576040517f08c379a000000000000000000000000000000000000000000000000000000000815260040161217b906130cd565b60405180910390fd5b61218d816111e5565b156121cd576040517f08c379a00000000000000000000000000000000000000000000000000000000081526004016121c490612fcd565b60405180910390fd5b6121d960008383611f18565b6001600360008473ffffffffffffffffffffffffffffffffffffffff1673ffffffffffffffffffffffffffffffffffffffff168152602001908152602001600020600082825461222991906132d3565b92505081905550816002600083815260200190815260200160002060006101000a81548173ffffffffffffffffffffffffffffffffffffffff021916908373ffffffffffffffffffffffffffffffffffffffff160217905550808273ffffffffffffffffffffffffffffffffffffffff16600073ffffffffffffffffffffffffffffffffffffffff167fddf252ad1be2c89b69c2b068fc378daa952ba7f163c4a11628f55a4df523b3ef60405160405180910390a46122ea60008383611f1d565b5050565b6000808273ffffffffffffffffffffffffffffffffffffffff163b119050919050565b82805461231d9061349e565b90600052602060002090601f01602090048101928261233f5760008555612386565b82601f1061235857805160ff1916838001178555612386565b82800160010185558215612386579182015b8281111561238557825182559160200191906001019061236a565b5b5090506123939190612397565b5090565b5b808211156123b0576000816000905550600101612398565b5090565b60006123c76123c2846131ed565b6131c8565b9050808382526020820190508260005b8581101561240757813585016123ed8882612535565b8452602084019350602083019250506001810190506123d7565b5050509392505050565b600061242461241f84613219565b6131c8565b90508281526020810184848401111561243c57600080fd5b61244784828561345c565b509392505050565b600061246261245d8461324a565b6131c8565b90508281526020810184848401111561247a57600080fd5b61248584828561345c565b509392505050565b60008135905061249c81613cfb565b92915050565b600082601f8301126124b357600080fd5b81356124c38482602086016123b4565b91505092915050565b6000813590506124db81613d12565b92915050565b6000813590506124f081613d29565b92915050565b60008151905061250581613d29565b92915050565b600082601f83011261251c57600080fd5b813561252c848260208601612411565b91505092915050565b600082601f83011261254657600080fd5b813561255684826020860161244f565b91505092915050565b60008135905061256e81613d40565b92915050565b60006020828403121561258657600080fd5b60006125948482850161248d565b91505092915050565b600080604083850312156125b057600080fd5b60006125be8582860161248d565b92505060206125cf8582860161248d565b9150509250929050565b6000806000606084860312156125ee57600080fd5b60006125fc8682870161248d565b935050602061260d8682870161248d565b925050604061261e8682870161255f565b9150509250925092565b6000806000806080858703121561263e57600080fd5b600061264c8782880161248d565b945050602061265d8782880161248d565b935050604061266e8782880161255f565b925050606085013567ffffffffffffffff81111561268b57600080fd5b6126978782880161250b565b91505092959194509250565b600080604083850312156126b657600080fd5b60006126c48582860161248d565b92505060206126d5858286016124cc565b9150509250929050565b600080604083850312156126f257600080fd5b60006127008582860161248d565b92505060206127118582860161255f565b9150509250929050565b60006020828403121561272d57600080fd5b600061273b848285016124e1565b91505092915050565b60006020828403121561275657600080fd5b6000612764848285016124f6565b91505092915050565b60006020828403121561277f57600080fd5b600061278d8482850161255f565b91505092915050565b600080604083850312156127a957600080fd5b60006127b78582860161255f565b925050602083013567ffffffffffffffff8111156127d457600080fd5b6127e0858286016124a2565b9150509250929050565b6127f3816133e8565b82525050565b612802816133fa565b82525050565b600061281382613290565b61281d81856132a6565b935061282d81856020860161346b565b61283681613637565b840191505092915050565b600061284c8261329b565b61285681856132b7565b935061286681856020860161346b565b61286f81613637565b840191505092915050565b60006128858261329b565b61288f81856132c8565b935061289f81856020860161346b565b80840191505092915050565b600081546128b88161349e565b6128c281866132c8565b945060018216600081146128dd57600181146128ee57612921565b60ff19831686528186019350612921565b6128f78561327b565b60005b83811015612919578154818901526001820191506020810190506128fa565b838801955050505b50505092915050565b60006129376025836132c8565b915061294282613648565b602582019050919050565b600061295a6032836132b7565b915061296582613697565b604082019050919050565b600061297d6002836132c8565b9150612988826136e6565b600282019050919050565b60006129a06025836132b7565b91506129ab8261370f565b604082019050919050565b60006129c3601c836132b7565b91506129ce8261375e565b602082019050919050565b60006129e6602c836132c8565b91506129f182613787565b602c82019050919050565b6000612a096024836132b7565b9150612a14826137d6565b604082019050919050565b6000612a2c6019836132b7565b9150612a3782613825565b602082019050919050565b6000612a4f602c836132b7565b9150612a5a8261384e565b604082019050919050565b6000612a72600d836132c8565b9150612a7d8261389d565b600d82019050919050565b6000612a956038836132b7565b9150612aa0826138c6565b604082019050919050565b6000612ab8602a836132b7565b9150612ac382613915565b604082019050919050565b6000612adb6029836132b7565b9150612ae682613964565b604082019050919050565b6000612afe602e836132b7565b9150612b09826139b3565b604082019050919050565b6000612b216024836132c8565b9150612b2c82613a02565b602482019050919050565b6000612b446002836132c8565b9150612b4f82613a51565b600282019050919050565b6000612b676020836132b7565b9150612b7282613a7a565b602082019050919050565b6000612b8a6019836132b7565b9150612b9582613aa3565b602082019050919050565b6000612bad6031836132b7565b9150612bb882613acc565b604082019050919050565b6000612bd0602c836132b7565b9150612bdb82613b1b565b604082019050919050565b6000612bf3602f836132b7565b9150612bfe82613b6a565b604082019050919050565b6000612c16600a836132c8565b9150612c2182613bb9565b600a82019050919050565b6000612c396021836132b7565b9150612c4482613be2565b604082019050919050565b6000612c5c600a836132c8565b9150612c6782613c31565b600a82019050919050565b6000612c7f601d836132c8565b9150612c8a82613c5a565b601d82019050919050565b6000612ca26031836132b7565b9150612cad82613c83565b604082019050919050565b6000612cc56005836132c8565b9150612cd082613cd2565b600582019050919050565b612ce481613452565b82525050565b6000612cf6828461287a565b915081905092915050565b6000612d0d828561287a565b9150612d19828461287a565b91508190509392505050565b6000612d31828661287a565b9150612d3d828561287a565b9150612d49828461287a565b9150819050949350505050565b6000612d6282876128ab565b9150612d6e828661287a565b9150612d7a82856128ab565b9150612d86828461287a565b9150612d9182612a65565b915081905095945050505050565b6000612daa8261292a565b9150612db6828461287a565b915081905092915050565b6000612dcc82612c09565b9150612dd8828561287a565b9150612de382612970565b9150612dee826129d9565b9150612df982612b14565b9150612e05828461287a565b9150612e1082612b37565b91508190509392505050565b6000612e2782612c4f565b9150612e33828461287a565b915081905092915050565b6000612e4982612c72565b9150612e55828461287a565b915081905092915050565b6000612e6b82612cb8565b9150612e77828461287a565b915081905092915050565b6000602082019050612e9760008301846127ea565b92915050565b6000608082019050612eb260008301876127ea565b612ebf60208301866127ea565b612ecc6040830185612cdb565b8181036060830152612ede8184612808565b905095945050505050565b6000604082019050612efe60008301856127ea565b612f0b6020830184612cdb565b9392505050565b6000602082019050612f2760008301846127f9565b92915050565b60006020820190508181036000830152612f478184612841565b905092915050565b60006060820190508181036000830152612f698186612841565b9050612f786020830185612cdb565b612f8560408301846127ea565b949350505050565b60006020820190508181036000830152612fa68161294d565b9050919050565b60006020820190508181036000830152612fc681612993565b9050919050565b60006020820190508181036000830152612fe6816129b6565b9050919050565b60006020820190508181036000830152613006816129fc565b9050919050565b6000602082019050818103600083015261302681612a1f565b9050919050565b6000602082019050818103600083015261304681612a42565b9050919050565b6000602082019050818103600083015261306681612a88565b9050919050565b6000602082019050818103600083015261308681612aab565b9050919050565b600060208201905081810360008301526130a681612ace565b9050919050565b600060208201905081810360008301526130c681612af1565b9050919050565b600060208201905081810360008301526130e681612b5a565b9050919050565b6000602082019050818103600083015261310681612b7d565b9050919050565b6000602082019050818103600083015261312681612ba0565b9050919050565b6000602082019050818103600083015261314681612bc3565b9050919050565b6000602082019050818103600083015261316681612be6565b9050919050565b6000602082019050818103600083015261318681612c2c565b9050919050565b600060208201905081810360008301526131a681612c95565b9050919050565b60006020820190506131c26000830184612cdb565b92915050565b60006131d26131e3565b90506131de82826134d0565b919050565b6000604051905090565b600067ffffffffffffffff82111561320857613207613608565b5b602082029050602081019050919050565b600067ffffffffffffffff82111561323457613233613608565b5b61323d82613637565b9050602081019050919050565b600067ffffffffffffffff82111561326557613264613608565b5b61326e82613637565b9050602081019050919050565b60008190508160005260206000209050919050565b600081519050919050565b600081519050919050565b600082825260208201905092915050565b600082825260208201905092915050565b600081905092915050565b60006132de82613452565b91506132e983613452565b9250827fffffffffffffffffffffffffffffffffffffffffffffffffffffffffffffffff0382111561331e5761331d61357b565b5b828201905092915050565b600061333482613452565b915061333f83613452565b92508261334f5761334e6135aa565b5b828204905092915050565b600061336582613452565b915061337083613452565b9250817fffffffffffffffffffffffffffffffffffffffffffffffffffffffffffffffff04831182151516156133a9576133a861357b565b5b828202905092915050565b60006133bf82613452565b91506133ca83613452565b9250828210156133dd576133dc61357b565b5b828203905092915050565b60006133f382613432565b9050919050565b60008115159050919050565b60007fffffffff0000000000000000000000000000000000000000000000000000000082169050919050565b600073ffffffffffffffffffffffffffffffffffffffff82169050919050565b6000819050919050565b82818337600083830152505050565b60005b8381101561348957808201518184015260208101905061346e565b83811115613498576000848401525b50505050565b600060028204905060018216806134b657607f821691505b602082108114156134ca576134c96135d9565b5b50919050565b6134d982613637565b810181811067ffffffffffffffff821117156134f8576134f7613608565b5b80604052505050565b600061350c82613452565b91507fffffffffffffffffffffffffffffffffffffffffffffffffffffffffffffffff82141561353f5761353e61357b565b5b600182019050919050565b600061355582613452565b915061356083613452565b9250826135705761356f6135aa565b5b828206905092915050565b7f4e487b7100000000000000000000000000000000000000000000000000000000600052601160045260246000fd5b7f4e487b7100000000000000000000000000000000000000000000000000000000600052601260045260246000fd5b7f4e487b7100000000000000000000000000000000000000000000000000000000600052602260045260246000fd5b7f4e487b7100000000000000000000000000000000000000000000000000000000600052604160045260246000fd5b6000601f19601f8301169050919050565b7f68747470733a2f2f6e6674707265766965772e30786465762e636f6465732f3f60008201527f636f64653d000000000000000000000000000000000000000000000000000000602082015250565b7f4552433732313a207472616e7366657220746f206e6f6e20455243373231526560008201527f63656976657220696d706c656d656e7465720000000000000000000000000000602082015250565b7f222c000000000000000000000000000000000000000000000000000000000000600082015250565b7f4552433732313a207472616e736665722066726f6d20696e636f72726563742060008201527f6f776e6572000000000000000000000000000000000000000000000000000000602082015250565b7f4552433732313a20746f6b656e20616c7265616479206d696e74656400000000600082015250565b7f226465736372697074696f6e223a20224120636f6c6c656374696f6e20666f7260008201527f207265616c206f6e6573222c0000000000000000000000000000000000000000602082015250565b7f4552433732313a207472616e7366657220746f20746865207a65726f2061646460008201527f7265737300000000000000000000000000000000000000000000000000000000602082015250565b7f4552433732313a20617070726f766520746f2063616c6c657200000000000000600082015250565b7f4552433732313a206f70657261746f7220717565727920666f72206e6f6e657860008201527f697374656e7420746f6b656e0000000000000000000000000000000000000000602082015250565b7f3c2f746578743e3c2f7376673e00000000000000000000000000000000000000600082015250565b7f4552433732313a20617070726f76652063616c6c6572206973206e6f74206f7760008201527f6e6572206e6f7220617070726f76656420666f7220616c6c0000000000000000602082015250565b7f4552433732313a2062616c616e636520717565727920666f7220746865207a6560008201527f726f206164647265737300000000000000000000000000000000000000000000602082015250565b7f4552433732313a206f776e657220717565727920666f72206e6f6e657869737460008201527f656e7420746f6b656e0000000000000000000000000000000000000000000000602082015250565b7f45524337323155524953746f726167653a2055524920736574206f66206e6f6e60008201527f6578697374656e7420746f6b656e000000000000000000000000000000000000602082015250565b7f22696d616765223a2022646174613a696d6167652f7376672b786d6c3b62617360008201527f6536342c00000000000000000000000000000000000000000000000000000000602082015250565b7f227d000000000000000000000000000000000000000000000000000000000000600082015250565b7f4552433732313a206d696e7420746f20746865207a65726f2061646472657373600082015250565b7f416c6c204e4654732068617665206265656e206d696e74656400000000000000600082015250565b7f45524337323155524953746f726167653a2055524920717565727920666f722060008201527f6e6f6e6578697374656e7420746f6b656e000000000000000000000000000000602082015250565b7f4552433732313a20617070726f76656420717565727920666f72206e6f6e657860008201527f697374656e7420746f6b656e0000000000000000000000000000000000000000602082015250565b7f4552433732314d657461646174613a2055524920717565727920666f72206e6f60008201527f6e6578697374656e7420746f6b656e0000000000000000000000000000000000602082015250565b7f7b226e616d65223a202200000000000000000000000000000000000000000000600082015250565b7f4552433732313a20617070726f76616c20746f2063757272656e74206f776e6560008201527f7200000000000000000000000000000000000000000000000000000000000000602082015250565b7f46495253545f574f524400000000000000000000000000000000000000000000600082015250565b7f646174613a6170706c69636174696f6e2f6a736f6e3b6261736536342c000000600082015250565b7f4552433732313a207472616e736665722063616c6c6572206973206e6f74206f60008201527f776e6572206e6f7220617070726f766564000000000000000000000000000000602082015250565b7f434f4c4f52000000000000000000000000000000000000000000000000000000600082015250565b613d04816133e8565b8114613d0f57600080fd5b50565b613d1b816133fa565b8114613d2657600080fd5b50565b613d3281613406565b8114613d3d57600080fd5b50565b613d4981613452565b8114613d5457600080fd5b5056fe416e204e465420772f20494420257320686173206265656e206d696e74656420746f2025734142434445464748494a4b4c4d4e4f505152535455565758595a6162636465666768696a6b6c6d6e6f707172737475767778797a303132333435363738392b2fa264697066735822122026d1821b45e071a26e1aee9e3b430636564ca597af7f0ea38b0d1ad98ba3341e64736f6c634300080100333c73766720786d6c6e733d27687474703a2f2f7777772e77332e6f72672f323030302f73766727207072657365727665417370656374526174696f3d27784d696e594d696e206d656574272076696577426f783d273020302033353020333530273e3c7374796c653e2e62617365207b2066696c6c3a2077686974653b20666f6e742d66616d696c793a2073657269663b20666f6e742d73697a653a20323470783b207d3c2f7374796c653e3c726563742077696474683d273130302527206865696768743d2731303025272066696c6c3d27272f3e3c7465787420783d273530252720793d273530252720636c6173733d27626173652720646f6d696e616e742d626173656c696e653d276d6964646c652720746578742d616e63686f723d276d6964646c65273e",
  "devdoc": {
    "kind": "dev",
    "methods": {
      "approve(address,uint256)": {
        "details": "See {IERC721-approve}."
      },
      "balanceOf(address)": {
        "details": "See {IERC721-balanceOf}."
      },
      "getApproved(uint256)": {
        "details": "See {IERC721-getApproved}."
      },
      "isApprovedForAll(address,address)": {
        "details": "See {IERC721-isApprovedForAll}."
      },
      "name()": {
        "details": "See {IERC721Metadata-name}."
      },
      "ownerOf(uint256)": {
        "details": "See {IERC721-ownerOf}."
      },
      "safeTransferFrom(address,address,uint256)": {
        "details": "See {IERC721-safeTransferFrom}."
      },
      "safeTransferFrom(address,address,uint256,bytes)": {
        "details": "See {IERC721-safeTransferFrom}."
      },
      "setApprovalForAll(address,bool)": {
        "details": "See {IERC721-setApprovalForAll}."
      },
      "supportsInterface(bytes4)": {
        "details": "See {IERC165-supportsInterface}."
      },
      "symbol()": {
        "details": "See {IERC721Metadata-symbol}."
      },
      "tokenURI(uint256)": {
        "details": "See {IERC721Metadata-tokenURI}."
      },
      "transferFrom(address,address,uint256)": {
        "details": "See {IERC721-transferFrom}."
      }
    },
    "version": 1
  },
  "userdoc": {
    "kind": "user",
    "methods": {},
    "version": 1
  },
  "storageLayout": {
    "storage": [
      {
        "astId": 25,
        "contract": "contracts/RadNFT.sol:RadNFT",
        "label": "_name",
        "offset": 0,
        "slot": "0",
        "type": "t_string_storage"
      },
      {
        "astId": 27,
        "contract": "contracts/RadNFT.sol:RadNFT",
        "label": "_symbol",
        "offset": 0,
        "slot": "1",
        "type": "t_string_storage"
      },
      {
        "astId": 31,
        "contract": "contracts/RadNFT.sol:RadNFT",
        "label": "_owners",
        "offset": 0,
        "slot": "2",
        "type": "t_mapping(t_uint256,t_address)"
      },
      {
        "astId": 35,
        "contract": "contracts/RadNFT.sol:RadNFT",
        "label": "_balances",
        "offset": 0,
        "slot": "3",
        "type": "t_mapping(t_address,t_uint256)"
      },
      {
        "astId": 39,
        "contract": "contracts/RadNFT.sol:RadNFT",
        "label": "_tokenApprovals",
        "offset": 0,
        "slot": "4",
        "type": "t_mapping(t_uint256,t_address)"
      },
      {
        "astId": 45,
        "contract": "contracts/RadNFT.sol:RadNFT",
        "label": "_operatorApprovals",
        "offset": 0,
        "slot": "5",
        "type": "t_mapping(t_address,t_mapping(t_address,t_bool))"
      },
      {
        "astId": 1012,
        "contract": "contracts/RadNFT.sol:RadNFT",
        "label": "_tokenURIs",
        "offset": 0,
        "slot": "6",
        "type": "t_mapping(t_uint256,t_string_storage)"
      },
      {
        "astId": 1800,
        "contract": "contracts/RadNFT.sol:RadNFT",
        "label": "_tokenIds",
        "offset": 0,
        "slot": "7",
        "type": "t_struct(Counter)1477_storage"
      },
      {
        "astId": 1806,
        "contract": "contracts/RadNFT.sol:RadNFT",
        "label": "svgPartOne",
        "offset": 0,
        "slot": "8",
        "type": "t_string_storage"
      },
      {
        "astId": 1809,
        "contract": "contracts/RadNFT.sol:RadNFT",
        "label": "svgPartTwo",
        "offset": 0,
        "slot": "9",
        "type": "t_string_storage"
      },
      {
        "astId": 1830,
        "contract": "contracts/RadNFT.sol:RadNFT",
        "label": "firstWords",
        "offset": 0,
        "slot": "10",
        "type": "t_array(t_string_storage)dyn_storage"
      },
      {
        "astId": 1851,
        "contract": "contracts/RadNFT.sol:RadNFT",
        "label": "secondWords",
        "offset": 0,
        "slot": "11",
        "type": "t_array(t_string_storage)dyn_storage"
      },
      {
        "astId": 1872,
        "contract": "contracts/RadNFT.sol:RadNFT",
        "label": "thirdWords",
        "offset": 0,
        "slot": "12",
        "type": "t_array(t_string_storage)dyn_storage"
      },
      {
        "astId": 1882,
        "contract": "contracts/RadNFT.sol:RadNFT",
        "label": "colors",
        "offset": 0,
        "slot": "13",
        "type": "t_array(t_string_storage)dyn_storage"
      }
    ],
    "types": {
      "t_address": {
        "encoding": "inplace",
        "label": "address",
        "numberOfBytes": "20"
      },
      "t_array(t_string_storage)dyn_storage": {
        "base": "t_string_storage",
        "encoding": "dynamic_array",
        "label": "string[]",
        "numberOfBytes": "32"
      },
      "t_bool": {
        "encoding": "inplace",
        "label": "bool",
        "numberOfBytes": "1"
      },
      "t_mapping(t_address,t_bool)": {
        "encoding": "mapping",
        "key": "t_address",
        "label": "mapping(address => bool)",
        "numberOfBytes": "32",
        "value": "t_bool"
      },
      "t_mapping(t_address,t_mapping(t_address,t_bool))": {
        "encoding": "mapping",
        "key": "t_address",
        "label": "mapping(address => mapping(address => bool))",
        "numberOfBytes": "32",
        "value": "t_mapping(t_address,t_bool)"
      },
      "t_mapping(t_address,t_uint256)": {
        "encoding": "mapping",
        "key": "t_address",
        "label": "mapping(address => uint256)",
        "numberOfBytes": "32",
        "value": "t_uint256"
      },
      "t_mapping(t_uint256,t_address)": {
        "encoding": "mapping",
        "key": "t_uint256",
        "label": "mapping(uint256 => address)",
        "numberOfBytes": "32",
        "value": "t_address"
      },
      "t_mapping(t_uint256,t_string_storage)": {
        "encoding": "mapping",
        "key": "t_uint256",
        "label": "mapping(uint256 => string)",
        "numberOfBytes": "32",
        "value": "t_string_storage"
      },
      "t_string_storage": {
        "encoding": "bytes",
        "label": "string",
        "numberOfBytes": "32"
      },
      "t_struct(Counter)1477_storage": {
        "encoding": "inplace",
        "label": "struct Counters.Counter",
        "members": [
          {
            "astId": 1476,
            "contract": "contracts/RadNFT.sol:RadNFT",
            "label": "_value",
            "offset": 0,
            "slot": "0",
            "type": "t_uint256"
          }
        ],
        "numberOfBytes": "32"
      },
      "t_uint256": {
        "encoding": "inplace",
        "label": "uint256",
        "numberOfBytes": "32"
      }
    }
  }
}